{
  "contractName": "soulboundLibrary",
  "abi": [
    {
      "inputs": [
        {
          "internalType": "string",
          "name": "name_",
          "type": "string"
        },
        {
          "internalType": "string",
          "name": "symbol_",
          "type": "string"
        }
      ],
      "stateMutability": "nonpayable",
      "type": "constructor"
    },
    {
      "inputs": [],
      "name": "ApprovalCallerNotOwnerNorApproved",
      "type": "error"
    },
    {
      "inputs": [],
      "name": "ApprovalQueryForNonexistentToken",
      "type": "error"
    },
    {
      "inputs": [],
      "name": "ApprovalToCurrentOwner",
      "type": "error"
    },
    {
      "inputs": [],
      "name": "ApproveToCaller",
      "type": "error"
    },
    {
      "inputs": [],
      "name": "BalanceQueryForZeroAddress",
      "type": "error"
    },
    {
      "inputs": [],
      "name": "MintToZeroAddress",
      "type": "error"
    },
    {
      "inputs": [],
      "name": "MintZeroQuantity",
      "type": "error"
    },
    {
      "inputs": [],
      "name": "OwnerQueryForNonexistentToken",
      "type": "error"
    },
    {
      "inputs": [],
      "name": "TransferCallerNotOwnerNorApproved",
      "type": "error"
    },
    {
      "inputs": [],
      "name": "TransferFromIncorrectOwner",
      "type": "error"
    },
    {
      "inputs": [],
      "name": "TransferToNonERC721ReceiverImplementer",
      "type": "error"
    },
    {
      "inputs": [],
      "name": "TransferToZeroAddress",
      "type": "error"
    },
    {
      "inputs": [],
      "name": "URIQueryForNonexistentToken",
      "type": "error"
    },
    {
      "anonymous": false,
      "inputs": [
        {
          "indexed": true,
          "internalType": "address",
          "name": "owner",
          "type": "address"
        },
        {
          "indexed": true,
          "internalType": "address",
          "name": "approved",
          "type": "address"
        },
        {
          "indexed": true,
          "internalType": "uint256",
          "name": "tokenId",
          "type": "uint256"
        }
      ],
      "name": "Approval",
      "type": "event"
    },
    {
      "anonymous": false,
      "inputs": [
        {
          "indexed": true,
          "internalType": "address",
          "name": "owner",
          "type": "address"
        },
        {
          "indexed": true,
          "internalType": "address",
          "name": "operator",
          "type": "address"
        },
        {
          "indexed": false,
          "internalType": "bool",
          "name": "approved",
          "type": "bool"
        }
      ],
      "name": "ApprovalForAll",
      "type": "event"
    },
    {
      "anonymous": false,
      "inputs": [
        {
          "indexed": true,
          "internalType": "address",
          "name": "from",
          "type": "address"
        },
        {
          "indexed": true,
          "internalType": "address",
          "name": "to",
          "type": "address"
        },
        {
          "indexed": true,
          "internalType": "uint256",
          "name": "tokenId",
          "type": "uint256"
        }
      ],
      "name": "Transfer",
      "type": "event"
    },
    {
      "inputs": [
        {
          "internalType": "address",
          "name": "to",
          "type": "address"
        },
        {
          "internalType": "uint256",
          "name": "tokenId",
          "type": "uint256"
        }
      ],
      "name": "approve",
      "outputs": [],
      "stateMutability": "nonpayable",
      "type": "function"
    },
    {
      "inputs": [
        {
          "internalType": "address",
          "name": "owner",
          "type": "address"
        }
      ],
      "name": "balanceOf",
      "outputs": [
        {
          "internalType": "uint256",
          "name": "",
          "type": "uint256"
        }
      ],
      "stateMutability": "view",
      "type": "function",
      "constant": true
    },
    {
      "inputs": [
        {
          "internalType": "uint256",
          "name": "tokenId",
          "type": "uint256"
        }
      ],
      "name": "getApproved",
      "outputs": [
        {
          "internalType": "address",
          "name": "",
          "type": "address"
        }
      ],
      "stateMutability": "view",
      "type": "function",
      "constant": true
    },
    {
      "inputs": [
        {
          "internalType": "address",
          "name": "owner",
          "type": "address"
        },
        {
          "internalType": "address",
          "name": "operator",
          "type": "address"
        }
      ],
      "name": "isApprovedForAll",
      "outputs": [
        {
          "internalType": "bool",
          "name": "",
          "type": "bool"
        }
      ],
      "stateMutability": "view",
      "type": "function",
      "constant": true
    },
    {
      "inputs": [],
      "name": "name",
      "outputs": [
        {
          "internalType": "string",
          "name": "",
          "type": "string"
        }
      ],
      "stateMutability": "view",
      "type": "function",
      "constant": true
    },
    {
      "inputs": [
        {
          "internalType": "uint256",
          "name": "tokenId",
          "type": "uint256"
        }
      ],
      "name": "ownerOf",
      "outputs": [
        {
          "internalType": "address",
          "name": "",
          "type": "address"
        }
      ],
      "stateMutability": "view",
      "type": "function",
      "constant": true
    },
    {
      "inputs": [
        {
          "internalType": "address",
          "name": "from",
          "type": "address"
        },
        {
          "internalType": "address",
          "name": "to",
          "type": "address"
        },
        {
          "internalType": "uint256",
          "name": "tokenId",
          "type": "uint256"
        }
      ],
      "name": "safeTransferFrom",
      "outputs": [],
      "stateMutability": "nonpayable",
      "type": "function"
    },
    {
      "inputs": [
        {
          "internalType": "address",
          "name": "from",
          "type": "address"
        },
        {
          "internalType": "address",
          "name": "to",
          "type": "address"
        },
        {
          "internalType": "uint256",
          "name": "tokenId",
          "type": "uint256"
        },
        {
          "internalType": "bytes",
          "name": "_data",
          "type": "bytes"
        }
      ],
      "name": "safeTransferFrom",
      "outputs": [],
      "stateMutability": "nonpayable",
      "type": "function"
    },
    {
      "inputs": [
        {
          "internalType": "address",
          "name": "operator",
          "type": "address"
        },
        {
          "internalType": "bool",
          "name": "approved",
          "type": "bool"
        }
      ],
      "name": "setApprovalForAll",
      "outputs": [],
      "stateMutability": "nonpayable",
      "type": "function"
    },
    {
      "inputs": [
        {
          "internalType": "bytes4",
          "name": "interfaceId",
          "type": "bytes4"
        }
      ],
      "name": "supportsInterface",
      "outputs": [
        {
          "internalType": "bool",
          "name": "",
          "type": "bool"
        }
      ],
      "stateMutability": "view",
      "type": "function",
      "constant": true
    },
    {
      "inputs": [],
      "name": "symbol",
      "outputs": [
        {
          "internalType": "string",
          "name": "",
          "type": "string"
        }
      ],
      "stateMutability": "view",
      "type": "function",
      "constant": true
    },
    {
      "inputs": [
        {
          "internalType": "uint256",
          "name": "tokenId",
          "type": "uint256"
        }
      ],
      "name": "tokenURI",
      "outputs": [
        {
          "internalType": "string",
          "name": "",
          "type": "string"
        }
      ],
      "stateMutability": "view",
      "type": "function",
      "constant": true
    },
    {
      "inputs": [],
      "name": "totalSupply",
      "outputs": [
        {
          "internalType": "uint256",
          "name": "",
          "type": "uint256"
        }
      ],
      "stateMutability": "view",
      "type": "function",
      "constant": true
    },
    {
      "inputs": [
        {
          "internalType": "address",
          "name": "from",
          "type": "address"
        },
        {
          "internalType": "address",
          "name": "to",
          "type": "address"
        },
        {
          "internalType": "uint256",
          "name": "tokenId",
          "type": "uint256"
        }
      ],
      "name": "transferFrom",
      "outputs": [],
      "stateMutability": "nonpayable",
      "type": "function"
    },
    {
      "stateMutability": "payable",
      "type": "receive",
      "payable": true
    },
    {
      "inputs": [
        {
          "internalType": "uint256",
          "name": "id",
          "type": "uint256"
        }
      ],
      "name": "getBook",
      "outputs": [
        {
          "components": [
            {
              "internalType": "string",
              "name": "isbn",
              "type": "string"
            }
          ],
          "internalType": "struct soulboundLibrary.Book",
          "name": "",
          "type": "tuple"
        }
      ],
      "stateMutability": "view",
      "type": "function",
      "constant": true
    },
    {
      "inputs": [
        {
          "internalType": "string",
          "name": "author_",
          "type": "string"
        },
        {
          "internalType": "string",
          "name": "name_",
          "type": "string"
        },
        {
          "internalType": "string",
          "name": "isbn_",
          "type": "string"
        }
      ],
      "name": "mint",
      "outputs": [],
      "stateMutability": "payable",
      "type": "function",
      "payable": true
    },
    {
      "inputs": [
        {
          "internalType": "string[]",
          "name": "authors_",
          "type": "string[]"
        },
        {
          "internalType": "string[]",
          "name": "names_",
          "type": "string[]"
        },
        {
          "internalType": "string[]",
          "name": "isbns_",
          "type": "string[]"
        },
        {
          "internalType": "uint256",
          "name": "batchMintSize",
          "type": "uint256"
        }
      ],
      "name": "batchMint",
      "outputs": [],
      "stateMutability": "payable",
      "type": "function",
      "payable": true
    },
    {
      "inputs": [
        {
          "internalType": "uint256",
          "name": "tokenID_",
          "type": "uint256"
        }
      ],
      "name": "burn",
      "outputs": [],
      "stateMutability": "nonpayable",
      "type": "function"
    },
    {
      "inputs": [
        {
          "internalType": "address",
          "name": "_to",
          "type": "address"
        },
        {
          "internalType": "uint256",
          "name": "amount",
          "type": "uint256"
        }
      ],
      "name": "withdraw",
      "outputs": [],
      "stateMutability": "nonpayable",
      "type": "function"
    }
  ],
  "bytecode": "0x60806040523480156200001157600080fd5b5060405162002d9738038062002d9783398181016040528101906200003791906200031e565b8181816002908051906020019062000051929190620000d1565b5080600390805190602001906200006a929190620000d1565b506200007b620000cc60201b60201c565b600081905550505033600860006101000a81548173ffffffffffffffffffffffffffffffffffffffff021916908373ffffffffffffffffffffffffffffffffffffffff160217905550505062000407565b600090565b828054620000df90620003d2565b90600052602060002090601f0160209004810192826200010357600085556200014f565b82601f106200011e57805160ff19168380011785556200014f565b828001600101855582156200014f579182015b828111156200014e57825182559160200191906001019062000131565b5b5090506200015e919062000162565b5090565b5b808211156200017d57600081600090555060010162000163565b5090565b6000604051905090565b600080fd5b600080fd5b600080fd5b600080fd5b6000601f19601f8301169050919050565b7f4e487b7100000000000000000000000000000000000000000000000000000000600052604160045260246000fd5b620001ea826200019f565b810181811067ffffffffffffffff821117156200020c576200020b620001b0565b5b80604052505050565b60006200022162000181565b90506200022f8282620001df565b919050565b600067ffffffffffffffff821115620002525762000251620001b0565b5b6200025d826200019f565b9050602081019050919050565b60005b838110156200028a5780820151818401526020810190506200026d565b838111156200029a576000848401525b50505050565b6000620002b7620002b18462000234565b62000215565b905082815260208101848484011115620002d657620002d56200019a565b5b620002e38482856200026a565b509392505050565b600082601f83011262000303576200030262000195565b5b815162000315848260208601620002a0565b91505092915050565b600080604083850312156200033857620003376200018b565b5b600083015167ffffffffffffffff81111562000359576200035862000190565b5b6200036785828601620002eb565b925050602083015167ffffffffffffffff8111156200038b576200038a62000190565b5b6200039985828601620002eb565b9150509250929050565b7f4e487b7100000000000000000000000000000000000000000000000000000000600052602260045260246000fd5b60006002820490506001821680620003eb57607f821691505b602082108103620004015762000400620003a3565b5b50919050565b61298080620004176000396000f3fe6080604052600436106101185760003560e01c806370a08231116100a0578063d645ddf611610064578063d645ddf614610405578063e0ff5b8b14610421578063e985e9c51461045e578063f24ce89e1461049b578063f3fef3a3146104b757610158565b806370a082311461030e57806395d89b411461034b578063a22cb46514610376578063b88d4fde1461039f578063c87b56dd146103c857610158565b806318160ddd116100e757806318160ddd1461022b57806323b872dd1461025657806342842e0e1461027f57806342966c68146102a85780636352211e146102d157610158565b806301ffc9a71461015d57806306fdde031461019a578063081812fc146101c5578063095ea7b31461020257610158565b36610158576040517f08c379a000000000000000000000000000000000000000000000000000000000815260040161014f9061193e565b60405180910390fd5b600080fd5b34801561016957600080fd5b50610184600480360381019061017f91906119ca565b6104e0565b6040516101919190611a12565b60405180910390f35b3480156101a657600080fd5b506101af610572565b6040516101bc9190611ab5565b60405180910390f35b3480156101d157600080fd5b506101ec60048036038101906101e79190611b0d565b610604565b6040516101f99190611b7b565b60405180910390f35b34801561020e57600080fd5b5061022960048036038101906102249190611bc2565b61060b565b005b34801561023757600080fd5b50610240610646565b60405161024d9190611c11565b60405180910390f35b34801561026257600080fd5b5061027d60048036038101906102789190611c2c565b61065d565b005b34801561028b57600080fd5b506102a660048036038101906102a19190611c2c565b610698565b005b3480156102b457600080fd5b506102cf60048036038101906102ca9190611b0d565b6106d3565b005b3480156102dd57600080fd5b506102f860048036038101906102f39190611b0d565b6107d3565b6040516103059190611b7b565b60405180910390f35b34801561031a57600080fd5b5061033560048036038101906103309190611c7f565b6107e5565b6040516103429190611c11565b60405180910390f35b34801561035757600080fd5b5061036061089d565b60405161036d9190611ab5565b60405180910390f35b34801561038257600080fd5b5061039d60048036038101906103989190611cd8565b61092f565b005b3480156103ab57600080fd5b506103c660048036038101906103c19190611e4d565b61096a565b005b3480156103d457600080fd5b506103ef60048036038101906103ea9190611b0d565b6109a5565b6040516103fc9190611ab5565b60405180910390f35b61041f600480360381019061041a9190611f71565b610a43565b005b34801561042d57600080fd5b5061044860048036038101906104439190611b0d565b610ae5565b604051610455919061208c565b60405180910390f35b34801561046a57600080fd5b50610485600480360381019061048091906120ae565b610bec565b6040516104929190611a12565b60405180910390f35b6104b560048036038101906104b091906121d4565b610bf4565b005b3480156104c357600080fd5b506104de60048036038101906104d99190611bc2565b610dd0565b005b60006301ffc9a760e01b827bffffffffffffffffffffffffffffffffffffffffffffffffffffffff1916148061053b57506380ac58cd60e01b827bffffffffffffffffffffffffffffffffffffffffffffffffffffffff1916145b8061056b5750635b5e139f60e01b827bffffffffffffffffffffffffffffffffffffffffffffffffffffffff1916145b9050919050565b606060028054610581906122be565b80601f01602080910402602001604051908101604052809291908181526020018280546105ad906122be565b80156105fa5780601f106105cf576101008083540402835291602001916105fa565b820191906000526020600020905b8154815290600101906020018083116105dd57829003601f168201915b5050505050905090565b6000919050565b6040517f08c379a000000000000000000000000000000000000000000000000000000000815260040161063d9061233b565b60405180910390fd5b6000610650610eee565b6001546000540303905090565b6040517f08c379a000000000000000000000000000000000000000000000000000000000815260040161068f9061233b565b60405180910390fd5b6040517f08c379a00000000000000000000000000000000000000000000000000000000081526004016106ca9061233b565b60405180910390fd5b3373ffffffffffffffffffffffffffffffffffffffff166106f3826107d3565b73ffffffffffffffffffffffffffffffffffffffff16148061076257503373ffffffffffffffffffffffffffffffffffffffff16600860009054906101000a900473ffffffffffffffffffffffffffffffffffffffff1673ffffffffffffffffffffffffffffffffffffffff16145b6107a1576040517f08c379a0000000000000000000000000000000000000000000000000000000008152600401610798906123a7565b60405180910390fd5b6107aa81610ef3565b60096000828152602001908152602001600020600080820160006107ce91906117c5565b505050565b60006107de82610f01565b9050919050565b60008073ffffffffffffffffffffffffffffffffffffffff168273ffffffffffffffffffffffffffffffffffffffff160361084c576040517f8f4eb60400000000000000000000000000000000000000000000000000000000815260040160405180910390fd5b67ffffffffffffffff600560008473ffffffffffffffffffffffffffffffffffffffff1673ffffffffffffffffffffffffffffffffffffffff16815260200190815260200160002054169050919050565b6060600380546108ac906122be565b80601f01602080910402602001604051908101604052809291908181526020018280546108d8906122be565b80156109255780601f106108fa57610100808354040283529160200191610925565b820191906000526020600020905b81548152906001019060200180831161090857829003601f168201915b5050505050905090565b6040517f08c379a00000000000000000000000000000000000000000000000000000000081526004016109619061233b565b60405180910390fd5b6040517f08c379a000000000000000000000000000000000000000000000000000000000815260040161099c9061233b565b60405180910390fd5b60606109b082610fcd565b6109e6576040517fa14c4b5000000000000000000000000000000000000000000000000000000000815260040160405180910390fd5b60006109f061102c565b90506000815103610a105760405180602001604052806000815250610a3b565b80610a1a84611043565b604051602001610a2b929190612403565b6040516020818303038152906040525b915050919050565b66038d7ea4c680003414610a8c576040517f08c379a0000000000000000000000000000000000000000000000000000000008152600401610a8390612473565b60405180910390fd5b60405180602001604052808281525060096000610aa761109d565b81526020019081526020016000206000820151816000019080519060200190610ad1929190611805565b50905050610ae03360016110a6565b505050565b610aed61188b565b610af682610fcd565b610b35576040517f08c379a0000000000000000000000000000000000000000000000000000000008152600401610b2c906124df565b60405180910390fd5b60096000838152602001908152602001600020604051806020016040529081600082018054610b63906122be565b80601f0160208091040260200160405190810160405280929190818152602001828054610b8f906122be565b8015610bdc5780601f10610bb157610100808354040283529160200191610bdc565b820191906000526020600020905b815481529060010190602001808311610bbf57829003601f168201915b5050505050815250509050919050565b600092915050565b60018111610c37576040517f08c379a0000000000000000000000000000000000000000000000000000000008152600401610c2e90612571565b60405180910390fd5b6064811115610c7b576040517f08c379a0000000000000000000000000000000000000000000000000000000008152600401610c72906125dd565b60405180910390fd5b808451148015610c8b5750808351145b8015610c975750808251145b610cd6576040517f08c379a0000000000000000000000000000000000000000000000000000000008152600401610ccd90612649565b60405180910390fd5b806601c6bf52634000610ce99190612698565b3414610d2a576040517f08c379a0000000000000000000000000000000000000000000000000000000008152600401610d2190612764565b60405180910390fd5b6000610d3461109d565b9050610d4033836110a6565b60005b82811015610dc8576040518060200160405280858381518110610d6957610d68612784565b5b6020026020010151815250600960008481526020019081526020016000206000820151816000019080519060200190610da3929190611805565b509050508180610db2906127b3565b9250508080610dc0906127b3565b915050610d43565b505050505050565b600860009054906101000a900473ffffffffffffffffffffffffffffffffffffffff1673ffffffffffffffffffffffffffffffffffffffff163373ffffffffffffffffffffffffffffffffffffffff1614610e60576040517f08c379a0000000000000000000000000000000000000000000000000000000008152600401610e57906123a7565b60405180910390fd5b47811115610ea3576040517f08c379a0000000000000000000000000000000000000000000000000000000008152600401610e9a90612847565b60405180910390fd5b8173ffffffffffffffffffffffffffffffffffffffff166108fc829081150290604051600060405180830381858888f19350505050158015610ee9573d6000803e3d6000fd5b505050565b600090565b610efe8160006110c4565b50565b60008082905080610f10610eee565b11610f9657600054811015610f955760006004600083815260200190815260200160002054905060007c0100000000000000000000000000000000000000000000000000000000821603610f93575b60008103610f89576004600083600190039350838152602001908152602001600020549050610f5f565b8092505050610fc8565b505b5b6040517fdf2d9b4200000000000000000000000000000000000000000000000000000000815260040160405180910390fd5b919050565b600081610fd8610eee565b11158015610fe7575060005482105b8015611025575060007c0100000000000000000000000000000000000000000000000000000000600460008581526020019081526020016000205416145b9050919050565b606060405180602001604052806000815250905090565b60606080604051019050806040528082600183039250600a81066030018353600a810490505b801561108957600183039250600a81066030018353600a81049050611069565b508181036020830392508083525050919050565b60008054905090565b6110c082826040518060200160405280600081525061139a565b5050565b60006110cf83610f01565b9050600081905082156111ac5760008173ffffffffffffffffffffffffffffffffffffffff166110fd61164d565b73ffffffffffffffffffffffffffffffffffffffff16148061112c575061112b8261112661164d565b610bec565b5b80611171575061113a61164d565b73ffffffffffffffffffffffffffffffffffffffff1661115986610604565b73ffffffffffffffffffffffffffffffffffffffff16145b9050806111aa576040517f59c896be00000000000000000000000000000000000000000000000000000000815260040160405180910390fd5b505b6111ba816000866001611655565b6006600085815260200190815260200160002060006101000a81549073ffffffffffffffffffffffffffffffffffffffff0219169055600160806001901b03600560008373ffffffffffffffffffffffffffffffffffffffff1673ffffffffffffffffffffffffffffffffffffffff168152602001908152602001600020600082825401925050819055507c02000000000000000000000000000000000000000000000000000000007c010000000000000000000000000000000000000000000000000000000060a042901b61128f8461165b565b171717600460008681526020019081526020016000208190555060007c02000000000000000000000000000000000000000000000000000000008316036113185760006001850190506000600460008381526020019081526020016000205403611316576000548114611315578260046000838152602001908152602001600020819055505b5b505b83600073ffffffffffffffffffffffffffffffffffffffff168273ffffffffffffffffffffffffffffffffffffffff167fddf252ad1be2c89b69c2b068fc378daa952ba7f163c4a11628f55a4df523b3ef60405160405180910390a4611382816000866001611665565b60016000815480929190600101919050555050505050565b600080549050600073ffffffffffffffffffffffffffffffffffffffff168473ffffffffffffffffffffffffffffffffffffffff1603611406576040517f2e07630000000000000000000000000000000000000000000000000000000000815260040160405180910390fd5b60008303611440576040517fb562e8dd00000000000000000000000000000000000000000000000000000000815260040160405180910390fd5b61144d6000858386611655565b600160406001901b178302600560008673ffffffffffffffffffffffffffffffffffffffff1673ffffffffffffffffffffffffffffffffffffffff1681526020019081526020016000206000828254019250508190555060e16114b26001851461166b565b901b60a042901b6114c28661165b565b1717600460008381526020019081526020016000208190555060008190506000848201905060008673ffffffffffffffffffffffffffffffffffffffff163b146115c6575b818673ffffffffffffffffffffffffffffffffffffffff16600073ffffffffffffffffffffffffffffffffffffffff167fddf252ad1be2c89b69c2b068fc378daa952ba7f163c4a11628f55a4df523b3ef60405160405180910390a46115766000878480600101955087611675565b6115ac576040517fd1a57ed600000000000000000000000000000000000000000000000000000000815260040160405180910390fd5b8082106115075782600054146115c157600080fd5b611631565b5b818060010192508673ffffffffffffffffffffffffffffffffffffffff16600073ffffffffffffffffffffffffffffffffffffffff167fddf252ad1be2c89b69c2b068fc378daa952ba7f163c4a11628f55a4df523b3ef60405160405180910390a48082106115c7575b8160008190555050506116476000858386611665565b50505050565b600033905090565b50505050565b6000819050919050565b50505050565b6000819050919050565b60008373ffffffffffffffffffffffffffffffffffffffff1663150b7a0261169b61164d565b8786866040518563ffffffff1660e01b81526004016116bd94939291906128bc565b6020604051808303816000875af19250505080156116f957506040513d601f19601f820116820180604052508101906116f6919061291d565b60015b611772573d8060008114611729576040519150601f19603f3d011682016040523d82523d6000602084013e61172e565b606091505b50600081510361176a576040517fd1a57ed600000000000000000000000000000000000000000000000000000000815260040160405180910390fd5b805181602001fd5b63150b7a0260e01b7bffffffffffffffffffffffffffffffffffffffffffffffffffffffff1916817bffffffffffffffffffffffffffffffffffffffffffffffffffffffff191614915050949350505050565b5080546117d1906122be565b6000825580601f106117e35750611802565b601f016020900490600052602060002090810190611801919061189e565b5b50565b828054611811906122be565b90600052602060002090601f016020900481019282611833576000855561187a565b82601f1061184c57805160ff191683800117855561187a565b8280016001018555821561187a579182015b8281111561187957825182559160200191906001019061185e565b5b509050611887919061189e565b5090565b6040518060200160405280606081525090565b5b808211156118b757600081600090555060010161189f565b5090565b600082825260208201905092915050565b7f46616c6c6261636b2066756e6374696f6e2c2074616b6520796f7572206d6f6e60008201527f6579206261636b00000000000000000000000000000000000000000000000000602082015250565b60006119286027836118bb565b9150611933826118cc565b604082019050919050565b600060208201905081810360008301526119578161191b565b9050919050565b6000604051905090565b600080fd5b600080fd5b60007fffffffff0000000000000000000000000000000000000000000000000000000082169050919050565b6119a781611972565b81146119b257600080fd5b50565b6000813590506119c48161199e565b92915050565b6000602082840312156119e0576119df611968565b5b60006119ee848285016119b5565b91505092915050565b60008115159050919050565b611a0c816119f7565b82525050565b6000602082019050611a276000830184611a03565b92915050565b600081519050919050565b60005b83811015611a56578082015181840152602081019050611a3b565b83811115611a65576000848401525b50505050565b6000601f19601f8301169050919050565b6000611a8782611a2d565b611a9181856118bb565b9350611aa1818560208601611a38565b611aaa81611a6b565b840191505092915050565b60006020820190508181036000830152611acf8184611a7c565b905092915050565b6000819050919050565b611aea81611ad7565b8114611af557600080fd5b50565b600081359050611b0781611ae1565b92915050565b600060208284031215611b2357611b22611968565b5b6000611b3184828501611af8565b91505092915050565b600073ffffffffffffffffffffffffffffffffffffffff82169050919050565b6000611b6582611b3a565b9050919050565b611b7581611b5a565b82525050565b6000602082019050611b906000830184611b6c565b92915050565b611b9f81611b5a565b8114611baa57600080fd5b50565b600081359050611bbc81611b96565b92915050565b60008060408385031215611bd957611bd8611968565b5b6000611be785828601611bad565b9250506020611bf885828601611af8565b9150509250929050565b611c0b81611ad7565b82525050565b6000602082019050611c266000830184611c02565b92915050565b600080600060608486031215611c4557611c44611968565b5b6000611c5386828701611bad565b9350506020611c6486828701611bad565b9250506040611c7586828701611af8565b9150509250925092565b600060208284031215611c9557611c94611968565b5b6000611ca384828501611bad565b91505092915050565b611cb5816119f7565b8114611cc057600080fd5b50565b600081359050611cd281611cac565b92915050565b60008060408385031215611cef57611cee611968565b5b6000611cfd85828601611bad565b9250506020611d0e85828601611cc3565b9150509250929050565b600080fd5b600080fd5b7f4e487b7100000000000000000000000000000000000000000000000000000000600052604160045260246000fd5b611d5a82611a6b565b810181811067ffffffffffffffff82111715611d7957611d78611d22565b5b80604052505050565b6000611d8c61195e565b9050611d988282611d51565b919050565b600067ffffffffffffffff821115611db857611db7611d22565b5b611dc182611a6b565b9050602081019050919050565b82818337600083830152505050565b6000611df0611deb84611d9d565b611d82565b905082815260208101848484011115611e0c57611e0b611d1d565b5b611e17848285611dce565b509392505050565b600082601f830112611e3457611e33611d18565b5b8135611e44848260208601611ddd565b91505092915050565b60008060008060808587031215611e6757611e66611968565b5b6000611e7587828801611bad565b9450506020611e8687828801611bad565b9350506040611e9787828801611af8565b925050606085013567ffffffffffffffff811115611eb857611eb761196d565b5b611ec487828801611e1f565b91505092959194509250565b600067ffffffffffffffff821115611eeb57611eea611d22565b5b611ef482611a6b565b9050602081019050919050565b6000611f14611f0f84611ed0565b611d82565b905082815260208101848484011115611f3057611f2f611d1d565b5b611f3b848285611dce565b509392505050565b600082601f830112611f5857611f57611d18565b5b8135611f68848260208601611f01565b91505092915050565b600080600060608486031215611f8a57611f89611968565b5b600084013567ffffffffffffffff811115611fa857611fa761196d565b5b611fb486828701611f43565b935050602084013567ffffffffffffffff811115611fd557611fd461196d565b5b611fe186828701611f43565b925050604084013567ffffffffffffffff8111156120025761200161196d565b5b61200e86828701611f43565b9150509250925092565b600082825260208201905092915050565b600061203482611a2d565b61203e8185612018565b935061204e818560208601611a38565b61205781611a6b565b840191505092915050565b6000602083016000830151848203600086015261207f8282612029565b9150508091505092915050565b600060208201905081810360008301526120a68184612062565b905092915050565b600080604083850312156120c5576120c4611968565b5b60006120d385828601611bad565b92505060206120e485828601611bad565b9150509250929050565b600067ffffffffffffffff82111561210957612108611d22565b5b602082029050602081019050919050565b600080fd5b600061213261212d846120ee565b611d82565b905080838252602082019050602084028301858111156121555761215461211a565b5b835b8181101561219c57803567ffffffffffffffff81111561217a57612179611d18565b5b8086016121878982611f43565b85526020850194505050602081019050612157565b5050509392505050565b600082601f8301126121bb576121ba611d18565b5b81356121cb84826020860161211f565b91505092915050565b600080600080608085870312156121ee576121ed611968565b5b600085013567ffffffffffffffff81111561220c5761220b61196d565b5b612218878288016121a6565b945050602085013567ffffffffffffffff8111156122395761223861196d565b5b612245878288016121a6565b935050604085013567ffffffffffffffff8111156122665761226561196d565b5b612272878288016121a6565b925050606061228387828801611af8565b91505092959194509250565b7f4e487b7100000000000000000000000000000000000000000000000000000000600052602260045260246000fd5b600060028204905060018216806122d657607f821691505b6020821081036122e9576122e861228f565b5b50919050565b7f534f554c424f554e440000000000000000000000000000000000000000000000600082015250565b60006123256009836118bb565b9150612330826122ef565b602082019050919050565b6000602082019050818103600083015261235481612318565b9050919050565b7f4e6f7420617574686f72697a6564000000000000000000000000000000000000600082015250565b6000612391600e836118bb565b915061239c8261235b565b602082019050919050565b600060208201905081810360008301526123c081612384565b9050919050565b600081905092915050565b60006123dd82611a2d565b6123e781856123c7565b93506123f7818560208601611a38565b80840191505092915050565b600061240f82856123d2565b915061241b82846123d2565b91508190509392505050565b7f426f6f6b206d696e7420636f737420697320302e303031206574682e00000000600082015250565b600061245d601c836118bb565b915061246882612427565b602082019050919050565b6000602082019050818103600083015261248c81612450565b9050919050565b7f426f6f6b20646f6573206e6f7420657869737400000000000000000000000000600082015250565b60006124c96013836118bb565b91506124d482612493565b602082019050919050565b600060208201905081810360008301526124f8816124bc565b9050919050565b7f596f752063616e206e6f74206261746368206d696e7420612073696e676c652060008201527f626f6f6b00000000000000000000000000000000000000000000000000000000602082015250565b600061255b6024836118bb565b9150612566826124ff565b604082019050919050565b6000602082019050818103600083015261258a8161254e565b9050919050565b7f4d6178696d756d206261746368206d696e7420636f756e742069732031303000600082015250565b60006125c7601f836118bb565b91506125d282612591565b602082019050919050565b600060208201905081810360008301526125f6816125ba565b9050919050565b7f496e636f6e73697374656e742064617461000000000000000000000000000000600082015250565b60006126336011836118bb565b915061263e826125fd565b602082019050919050565b6000602082019050818103600083015261266281612626565b9050919050565b7f4e487b7100000000000000000000000000000000000000000000000000000000600052601160045260246000fd5b60006126a382611ad7565b91506126ae83611ad7565b9250817fffffffffffffffffffffffffffffffffffffffffffffffffffffffffffffffff04831182151516156126e7576126e6612669565b5b828202905092915050565b7f4261746368206d696e7420636f737420697320302e3030303520657468202a2060008201527f62617463684d696e7453697a6500000000000000000000000000000000000000602082015250565b600061274e602d836118bb565b9150612759826126f2565b604082019050919050565b6000602082019050818103600083015261277d81612741565b9050919050565b7f4e487b7100000000000000000000000000000000000000000000000000000000600052603260045260246000fd5b60006127be82611ad7565b91507fffffffffffffffffffffffffffffffffffffffffffffffffffffffffffffffff82036127f0576127ef612669565b5b600182019050919050565b7f4e6f7420656e6f7567682062616c616e63650000000000000000000000000000600082015250565b60006128316012836118bb565b915061283c826127fb565b602082019050919050565b6000602082019050818103600083015261286081612824565b9050919050565b600081519050919050565b600082825260208201905092915050565b600061288e82612867565b6128988185612872565b93506128a8818560208601611a38565b6128b181611a6b565b840191505092915050565b60006080820190506128d16000830187611b6c565b6128de6020830186611b6c565b6128eb6040830185611c02565b81810360608301526128fd8184612883565b905095945050505050565b6000815190506129178161199e565b92915050565b60006020828403121561293357612932611968565b5b600061294184828501612908565b9150509291505056fea2646970667358221220629a9cd593d55370f98e2c3d96ccc3bf28cc8fdab012bca97204f9fd66da781164736f6c634300080e0033",
  "immutableReferences": {},
  "source": "// SPDX-License-Identifier: MIT\npragma solidity ^0.8.9;\n\nimport \"erc721a/contracts/ERC721A.sol\";\n\ncontract soulboundLibrary is ERC721A{\n    address _owner;\n    mapping (uint => Book) books;\n\n    struct Book{\n        string isbn;\n    }\n\n    constructor(string memory name_, string memory symbol_) ERC721A(name_,symbol_) {\n        _owner = msg.sender;\n    }\n\n    receive() external payable {\n        revert(\"Fallback function, take your money back\");\n    }\n\n    function getBook(uint id) public view returns(Book memory){\n        require(_exists(id),\"Book does not exist\");\n        return books[id];\n    }\n    //[\"a\",\"b\"]\n    function mint(string memory author_,string memory name_, string memory isbn_) public payable {\n        require(msg.value == 1000000000000000, \"Book mint cost is 0.001 eth.\");\n        //require(isbn_.length == 10, \"ISBN length not valid.\");\n\n        books[_nextTokenId()] = Book(isbn_);\n        _safeMint(msg.sender,1);\n    }\n\n    function batchMint(string[] memory authors_, string[] memory names_, string[] memory isbns_, uint batchMintSize) public payable{\n        require(batchMintSize > 1, \"You can not batch mint a single book\");\n        require(batchMintSize <= 100, \"Maximum batch mint count is 100\");\n        require(authors_.length == batchMintSize && names_.length == batchMintSize && isbns_.length == batchMintSize, \"Inconsistent data\");\n        require(msg.value == (500000000000000 * batchMintSize), \"Batch mint cost is 0.0005 eth * batchMintSize\");\n\n        uint tokenID = _nextTokenId();\n        _safeMint(msg.sender,batchMintSize);\n\n        for(uint i = 0; i < batchMintSize; i++){\n            books[tokenID] = Book(isbns_[i]);\n            tokenID++;\n        }\n    }\n\n    function burn(uint tokenID_) public {\n        require(ownerOf(tokenID_) == msg.sender || _owner == msg.sender,\"Not authorized\");\n        _burn(tokenID_);\n        delete books[tokenID_];\n    }\n\n    function withdraw(address _to, uint amount) public {\n        require(msg.sender == _owner,\"Not authorized\");\n        require(amount <= address(this).balance,\"Not enough balance\");\n        payable(_to).transfer(amount);\n    }\n}",
  "sourcePath": "/Users/ahmetomer/soulboundLibrary/contracts/soulboundLibrary.sol",
  "compiler": {
    "name": "solc",
    "version": "0.8.14+commit.80d49f37.Emscripten.clang"
  },
  "schemaVersion": "3.4.7",
  "updatedAt": "2022-05-30T14:59:11.613Z",
  "networkType": "ethereum",
  "devdoc": {
    "kind": "dev",
    "methods": {
      "approve(address,uint256)": {
        "details": "See {IERC721-approve}."
      },
      "balanceOf(address)": {
        "details": "See {IERC721-balanceOf}."
      },
      "getApproved(uint256)": {
        "details": "See {IERC721-getApproved}."
      },
      "isApprovedForAll(address,address)": {
        "details": "See {IERC721-isApprovedForAll}."
      },
      "name()": {
        "details": "See {IERC721Metadata-name}."
      },
      "ownerOf(uint256)": {
        "details": "See {IERC721-ownerOf}."
      },
      "safeTransferFrom(address,address,uint256)": {
        "details": "See {IERC721-safeTransferFrom}."
      },
      "safeTransferFrom(address,address,uint256,bytes)": {
        "details": "See {IERC721-safeTransferFrom}."
      },
      "setApprovalForAll(address,bool)": {
        "details": "See {IERC721-setApprovalForAll}."
      },
      "supportsInterface(bytes4)": {
        "details": "See {IERC165-supportsInterface}."
      },
      "symbol()": {
        "details": "See {IERC721Metadata-symbol}."
      },
      "tokenURI(uint256)": {
        "details": "See {IERC721Metadata-tokenURI}."
      },
      "totalSupply()": {
        "details": "Returns the total number of tokens in existence. Burned tokens will reduce the count.  To get the total number of tokens minted, please see `_totalMinted`."
      },
      "transferFrom(address,address,uint256)": {
        "details": "See {IERC721-transferFrom}."
      }
    },
    "version": 1
  },
  "userdoc": {
    "errors": {
      "ApprovalCallerNotOwnerNorApproved()": [
        {
          "notice": "The caller must own the token or be an approved operator."
        }
      ],
      "ApprovalQueryForNonexistentToken()": [
        {
          "notice": "The token does not exist."
        }
      ],
      "ApprovalToCurrentOwner()": [
        {
          "notice": "The caller cannot approve to the current owner."
        }
      ],
      "ApproveToCaller()": [
        {
          "notice": "The caller cannot approve to their own address."
        }
      ],
      "BalanceQueryForZeroAddress()": [
        {
          "notice": "Cannot query the balance for the zero address."
        }
      ],
      "MintToZeroAddress()": [
        {
          "notice": "Cannot mint to the zero address."
        }
      ],
      "MintZeroQuantity()": [
        {
          "notice": "The quantity of tokens minted must be more than zero."
        }
      ],
      "OwnerQueryForNonexistentToken()": [
        {
          "notice": "The token does not exist."
        }
      ],
      "TransferCallerNotOwnerNorApproved()": [
        {
          "notice": "The caller must own the token or be an approved operator."
        }
      ],
      "TransferFromIncorrectOwner()": [
        {
          "notice": "The token must be owned by `from`."
        }
      ],
      "TransferToNonERC721ReceiverImplementer()": [
        {
          "notice": "Cannot safely transfer to a contract that does not implement the ERC721Receiver interface."
        }
      ],
      "TransferToZeroAddress()": [
        {
          "notice": "Cannot transfer to the zero address."
        }
      ],
      "URIQueryForNonexistentToken()": [
        {
          "notice": "The token does not exist."
        }
      ]
    },
    "kind": "user",
    "methods": {},
    "version": 1
  }
}