{
  "contractName": "soulboundLibrary",
  "abi": [
    {
      "inputs": [
        {
          "internalType": "string",
          "name": "name_",
          "type": "string"
        },
        {
          "internalType": "string",
          "name": "symbol_",
          "type": "string"
        }
      ],
      "stateMutability": "nonpayable",
      "type": "constructor"
    },
    {
      "inputs": [],
      "name": "ApprovalCallerNotOwnerNorApproved",
      "type": "error"
    },
    {
      "inputs": [],
      "name": "ApprovalQueryForNonexistentToken",
      "type": "error"
    },
    {
      "inputs": [],
      "name": "ApprovalToCurrentOwner",
      "type": "error"
    },
    {
      "inputs": [],
      "name": "ApproveToCaller",
      "type": "error"
    },
    {
      "inputs": [],
      "name": "BalanceQueryForZeroAddress",
      "type": "error"
    },
    {
      "inputs": [],
      "name": "MintToZeroAddress",
      "type": "error"
    },
    {
      "inputs": [],
      "name": "MintZeroQuantity",
      "type": "error"
    },
    {
      "inputs": [],
      "name": "OwnerQueryForNonexistentToken",
      "type": "error"
    },
    {
      "inputs": [],
      "name": "TransferCallerNotOwnerNorApproved",
      "type": "error"
    },
    {
      "inputs": [],
      "name": "TransferFromIncorrectOwner",
      "type": "error"
    },
    {
      "inputs": [],
      "name": "TransferToNonERC721ReceiverImplementer",
      "type": "error"
    },
    {
      "inputs": [],
      "name": "TransferToZeroAddress",
      "type": "error"
    },
    {
      "inputs": [],
      "name": "URIQueryForNonexistentToken",
      "type": "error"
    },
    {
      "anonymous": false,
      "inputs": [
        {
          "indexed": true,
          "internalType": "address",
          "name": "owner",
          "type": "address"
        },
        {
          "indexed": true,
          "internalType": "address",
          "name": "approved",
          "type": "address"
        },
        {
          "indexed": true,
          "internalType": "uint256",
          "name": "tokenId",
          "type": "uint256"
        }
      ],
      "name": "Approval",
      "type": "event"
    },
    {
      "anonymous": false,
      "inputs": [
        {
          "indexed": true,
          "internalType": "address",
          "name": "owner",
          "type": "address"
        },
        {
          "indexed": true,
          "internalType": "address",
          "name": "operator",
          "type": "address"
        },
        {
          "indexed": false,
          "internalType": "bool",
          "name": "approved",
          "type": "bool"
        }
      ],
      "name": "ApprovalForAll",
      "type": "event"
    },
    {
      "anonymous": false,
      "inputs": [
        {
          "indexed": true,
          "internalType": "address",
          "name": "from",
          "type": "address"
        },
        {
          "indexed": true,
          "internalType": "address",
          "name": "to",
          "type": "address"
        },
        {
          "indexed": true,
          "internalType": "uint256",
          "name": "tokenId",
          "type": "uint256"
        }
      ],
      "name": "Transfer",
      "type": "event"
    },
    {
      "inputs": [
        {
          "internalType": "address",
          "name": "to",
          "type": "address"
        },
        {
          "internalType": "uint256",
          "name": "tokenId",
          "type": "uint256"
        }
      ],
      "name": "approve",
      "outputs": [],
      "stateMutability": "nonpayable",
      "type": "function"
    },
    {
      "inputs": [
        {
          "internalType": "address",
          "name": "owner",
          "type": "address"
        }
      ],
      "name": "balanceOf",
      "outputs": [
        {
          "internalType": "uint256",
          "name": "",
          "type": "uint256"
        }
      ],
      "stateMutability": "view",
      "type": "function",
      "constant": true
    },
    {
      "inputs": [
        {
          "internalType": "uint256",
          "name": "tokenId",
          "type": "uint256"
        }
      ],
      "name": "getApproved",
      "outputs": [
        {
          "internalType": "address",
          "name": "",
          "type": "address"
        }
      ],
      "stateMutability": "view",
      "type": "function",
      "constant": true
    },
    {
      "inputs": [
        {
          "internalType": "address",
          "name": "owner",
          "type": "address"
        },
        {
          "internalType": "address",
          "name": "operator",
          "type": "address"
        }
      ],
      "name": "isApprovedForAll",
      "outputs": [
        {
          "internalType": "bool",
          "name": "",
          "type": "bool"
        }
      ],
      "stateMutability": "view",
      "type": "function",
      "constant": true
    },
    {
      "inputs": [],
      "name": "name",
      "outputs": [
        {
          "internalType": "string",
          "name": "",
          "type": "string"
        }
      ],
      "stateMutability": "view",
      "type": "function",
      "constant": true
    },
    {
      "inputs": [
        {
          "internalType": "uint256",
          "name": "tokenId",
          "type": "uint256"
        }
      ],
      "name": "ownerOf",
      "outputs": [
        {
          "internalType": "address",
          "name": "",
          "type": "address"
        }
      ],
      "stateMutability": "view",
      "type": "function",
      "constant": true
    },
    {
      "inputs": [
        {
          "internalType": "address",
          "name": "from",
          "type": "address"
        },
        {
          "internalType": "address",
          "name": "to",
          "type": "address"
        },
        {
          "internalType": "uint256",
          "name": "tokenId",
          "type": "uint256"
        }
      ],
      "name": "safeTransferFrom",
      "outputs": [],
      "stateMutability": "nonpayable",
      "type": "function"
    },
    {
      "inputs": [
        {
          "internalType": "address",
          "name": "from",
          "type": "address"
        },
        {
          "internalType": "address",
          "name": "to",
          "type": "address"
        },
        {
          "internalType": "uint256",
          "name": "tokenId",
          "type": "uint256"
        },
        {
          "internalType": "bytes",
          "name": "_data",
          "type": "bytes"
        }
      ],
      "name": "safeTransferFrom",
      "outputs": [],
      "stateMutability": "nonpayable",
      "type": "function"
    },
    {
      "inputs": [
        {
          "internalType": "address",
          "name": "operator",
          "type": "address"
        },
        {
          "internalType": "bool",
          "name": "approved",
          "type": "bool"
        }
      ],
      "name": "setApprovalForAll",
      "outputs": [],
      "stateMutability": "nonpayable",
      "type": "function"
    },
    {
      "inputs": [
        {
          "internalType": "bytes4",
          "name": "interfaceId",
          "type": "bytes4"
        }
      ],
      "name": "supportsInterface",
      "outputs": [
        {
          "internalType": "bool",
          "name": "",
          "type": "bool"
        }
      ],
      "stateMutability": "view",
      "type": "function",
      "constant": true
    },
    {
      "inputs": [],
      "name": "symbol",
      "outputs": [
        {
          "internalType": "string",
          "name": "",
          "type": "string"
        }
      ],
      "stateMutability": "view",
      "type": "function",
      "constant": true
    },
    {
      "inputs": [
        {
          "internalType": "uint256",
          "name": "tokenId",
          "type": "uint256"
        }
      ],
      "name": "tokenURI",
      "outputs": [
        {
          "internalType": "string",
          "name": "",
          "type": "string"
        }
      ],
      "stateMutability": "view",
      "type": "function",
      "constant": true
    },
    {
      "inputs": [],
      "name": "totalSupply",
      "outputs": [
        {
          "internalType": "uint256",
          "name": "",
          "type": "uint256"
        }
      ],
      "stateMutability": "view",
      "type": "function",
      "constant": true
    },
    {
      "inputs": [
        {
          "internalType": "address",
          "name": "from",
          "type": "address"
        },
        {
          "internalType": "address",
          "name": "to",
          "type": "address"
        },
        {
          "internalType": "uint256",
          "name": "tokenId",
          "type": "uint256"
        }
      ],
      "name": "transferFrom",
      "outputs": [],
      "stateMutability": "nonpayable",
      "type": "function"
    },
    {
      "stateMutability": "payable",
      "type": "receive",
      "payable": true
    },
    {
      "inputs": [
        {
          "internalType": "uint256",
          "name": "id",
          "type": "uint256"
        }
      ],
      "name": "getBook",
      "outputs": [
        {
          "components": [
            {
              "internalType": "string",
              "name": "isbn",
              "type": "string"
            }
          ],
          "internalType": "struct soulboundLibrary.Book",
          "name": "",
          "type": "tuple"
        }
      ],
      "stateMutability": "view",
      "type": "function",
      "constant": true
    },
    {
      "inputs": [
        {
          "internalType": "string",
          "name": "isbn_",
          "type": "string"
        }
      ],
      "name": "mint",
      "outputs": [],
      "stateMutability": "payable",
      "type": "function",
      "payable": true
    },
    {
      "inputs": [
        {
          "internalType": "string[]",
          "name": "isbns_",
          "type": "string[]"
        },
        {
          "internalType": "uint256",
          "name": "batchMintSize",
          "type": "uint256"
        }
      ],
      "name": "batchMint",
      "outputs": [],
      "stateMutability": "payable",
      "type": "function",
      "payable": true
    },
    {
      "inputs": [
        {
          "internalType": "uint256",
          "name": "tokenID_",
          "type": "uint256"
        }
      ],
      "name": "burn",
      "outputs": [],
      "stateMutability": "nonpayable",
      "type": "function"
    },
    {
      "inputs": [
        {
          "internalType": "address",
          "name": "_to",
          "type": "address"
        },
        {
          "internalType": "uint256",
          "name": "amount",
          "type": "uint256"
        }
      ],
      "name": "withdraw",
      "outputs": [],
      "stateMutability": "nonpayable",
      "type": "function"
    }
  ],
  "bytecode": "0x60806040523480156200001157600080fd5b5060405162002c0f38038062002c0f83398181016040528101906200003791906200031e565b8181816002908051906020019062000051929190620000d1565b5080600390805190602001906200006a929190620000d1565b506200007b620000cc60201b60201c565b600081905550505033600860006101000a81548173ffffffffffffffffffffffffffffffffffffffff021916908373ffffffffffffffffffffffffffffffffffffffff160217905550505062000407565b600090565b828054620000df90620003d2565b90600052602060002090601f0160209004810192826200010357600085556200014f565b82601f106200011e57805160ff19168380011785556200014f565b828001600101855582156200014f579182015b828111156200014e57825182559160200191906001019062000131565b5b5090506200015e919062000162565b5090565b5b808211156200017d57600081600090555060010162000163565b5090565b6000604051905090565b600080fd5b600080fd5b600080fd5b600080fd5b6000601f19601f8301169050919050565b7f4e487b7100000000000000000000000000000000000000000000000000000000600052604160045260246000fd5b620001ea826200019f565b810181811067ffffffffffffffff821117156200020c576200020b620001b0565b5b80604052505050565b60006200022162000181565b90506200022f8282620001df565b919050565b600067ffffffffffffffff821115620002525762000251620001b0565b5b6200025d826200019f565b9050602081019050919050565b60005b838110156200028a5780820151818401526020810190506200026d565b838111156200029a576000848401525b50505050565b6000620002b7620002b18462000234565b62000215565b905082815260208101848484011115620002d657620002d56200019a565b5b620002e38482856200026a565b509392505050565b600082601f83011262000303576200030262000195565b5b815162000315848260208601620002a0565b91505092915050565b600080604083850312156200033857620003376200018b565b5b600083015167ffffffffffffffff81111562000359576200035862000190565b5b6200036785828601620002eb565b925050602083015167ffffffffffffffff8111156200038b576200038a62000190565b5b6200039985828601620002eb565b9150509250929050565b7f4e487b7100000000000000000000000000000000000000000000000000000000600052602260045260246000fd5b60006002820490506001821680620003eb57607f821691505b602082108103620004015762000400620003a3565b5b50919050565b6127f880620004176000396000f3fe6080604052600436106101185760003560e01c806370a08231116100a0578063c87b56dd11610064578063c87b56dd146103e4578063d85d3d2714610421578063e0ff5b8b1461043d578063e985e9c51461047a578063f3fef3a3146104b757610158565b806370a082311461030e5780638bca6f341461034b57806395d89b4114610367578063a22cb46514610392578063b88d4fde146103bb57610158565b806318160ddd116100e757806318160ddd1461022b57806323b872dd1461025657806342842e0e1461027f57806342966c68146102a85780636352211e146102d157610158565b806301ffc9a71461015d57806306fdde031461019a578063081812fc146101c5578063095ea7b31461020257610158565b36610158576040517f08c379a000000000000000000000000000000000000000000000000000000000815260040161014f906118df565b60405180910390fd5b600080fd5b34801561016957600080fd5b50610184600480360381019061017f919061196b565b6104e0565b60405161019191906119b3565b60405180910390f35b3480156101a657600080fd5b506101af610572565b6040516101bc9190611a56565b60405180910390f35b3480156101d157600080fd5b506101ec60048036038101906101e79190611aae565b610604565b6040516101f99190611b1c565b60405180910390f35b34801561020e57600080fd5b5061022960048036038101906102249190611b63565b61060b565b005b34801561023757600080fd5b50610240610646565b60405161024d9190611bb2565b60405180910390f35b34801561026257600080fd5b5061027d60048036038101906102789190611bcd565b61065d565b005b34801561028b57600080fd5b506102a660048036038101906102a19190611bcd565b610698565b005b3480156102b457600080fd5b506102cf60048036038101906102ca9190611aae565b6106d3565b005b3480156102dd57600080fd5b506102f860048036038101906102f39190611aae565b6107d3565b6040516103059190611b1c565b60405180910390f35b34801561031a57600080fd5b5061033560048036038101906103309190611c20565b6107e5565b6040516103429190611bb2565b60405180910390f35b61036560048036038101906103609190611e68565b61089d565b005b34801561037357600080fd5b5061037c610a1c565b6040516103899190611a56565b60405180910390f35b34801561039e57600080fd5b506103b960048036038101906103b49190611ef0565b610aae565b005b3480156103c757600080fd5b506103e260048036038101906103dd9190611fd1565b610ae9565b005b3480156103f057600080fd5b5061040b60048036038101906104069190611aae565b610b24565b6040516104189190611a56565b60405180910390f35b61043b60048036038101906104369190612054565b610bc2565b005b34801561044957600080fd5b50610464600480360381019061045f9190611aae565b610c62565b6040516104719190612111565b60405180910390f35b34801561048657600080fd5b506104a1600480360381019061049c9190612133565b610d69565b6040516104ae91906119b3565b60405180910390f35b3480156104c357600080fd5b506104de60048036038101906104d99190611b63565b610d71565b005b60006301ffc9a760e01b827bffffffffffffffffffffffffffffffffffffffffffffffffffffffff1916148061053b57506380ac58cd60e01b827bffffffffffffffffffffffffffffffffffffffffffffffffffffffff1916145b8061056b5750635b5e139f60e01b827bffffffffffffffffffffffffffffffffffffffffffffffffffffffff1916145b9050919050565b606060028054610581906121a2565b80601f01602080910402602001604051908101604052809291908181526020018280546105ad906121a2565b80156105fa5780601f106105cf576101008083540402835291602001916105fa565b820191906000526020600020905b8154815290600101906020018083116105dd57829003601f168201915b5050505050905090565b6000919050565b6040517f08c379a000000000000000000000000000000000000000000000000000000000815260040161063d9061221f565b60405180910390fd5b6000610650610e8f565b6001546000540303905090565b6040517f08c379a000000000000000000000000000000000000000000000000000000000815260040161068f9061221f565b60405180910390fd5b6040517f08c379a00000000000000000000000000000000000000000000000000000000081526004016106ca9061221f565b60405180910390fd5b3373ffffffffffffffffffffffffffffffffffffffff166106f3826107d3565b73ffffffffffffffffffffffffffffffffffffffff16148061076257503373ffffffffffffffffffffffffffffffffffffffff16600860009054906101000a900473ffffffffffffffffffffffffffffffffffffffff1673ffffffffffffffffffffffffffffffffffffffff16145b6107a1576040517f08c379a00000000000000000000000000000000000000000000000000000000081526004016107989061228b565b60405180910390fd5b6107aa81610e94565b60096000828152602001908152602001600020600080820160006107ce9190611766565b505050565b60006107de82610ea2565b9050919050565b60008073ffffffffffffffffffffffffffffffffffffffff168273ffffffffffffffffffffffffffffffffffffffff160361084c576040517f8f4eb60400000000000000000000000000000000000000000000000000000000815260040160405180910390fd5b67ffffffffffffffff600560008473ffffffffffffffffffffffffffffffffffffffff1673ffffffffffffffffffffffffffffffffffffffff16815260200190815260200160002054169050919050565b600181116108e0576040517f08c379a00000000000000000000000000000000000000000000000000000000081526004016108d79061231d565b60405180910390fd5b6064811115610924576040517f08c379a000000000000000000000000000000000000000000000000000000000815260040161091b90612389565b60405180910390fd5b806601c6bf5263400061093791906123d8565b3414610978576040517f08c379a000000000000000000000000000000000000000000000000000000000815260040161096f906124a4565b60405180910390fd5b6000610982610f6e565b905061098e3383610f77565b60005b82811015610a165760405180602001604052808583815181106109b7576109b66124c4565b5b60200260200101518152506009600084815260200190815260200160002060008201518160000190805190602001906109f19291906117a6565b509050508180610a00906124f3565b9250508080610a0e906124f3565b915050610991565b50505050565b606060038054610a2b906121a2565b80601f0160208091040260200160405190810160405280929190818152602001828054610a57906121a2565b8015610aa45780601f10610a7957610100808354040283529160200191610aa4565b820191906000526020600020905b815481529060010190602001808311610a8757829003601f168201915b5050505050905090565b6040517f08c379a0000000000000000000000000000000000000000000000000000000008152600401610ae09061221f565b60405180910390fd5b6040517f08c379a0000000000000000000000000000000000000000000000000000000008152600401610b1b9061221f565b60405180910390fd5b6060610b2f82610f95565b610b65576040517fa14c4b5000000000000000000000000000000000000000000000000000000000815260040160405180910390fd5b6000610b6f610ff4565b90506000815103610b8f5760405180602001604052806000815250610bba565b80610b998461100b565b604051602001610baa929190612577565b6040516020818303038152906040525b915050919050565b66038d7ea4c680003414610c0b576040517f08c379a0000000000000000000000000000000000000000000000000000000008152600401610c02906125e7565b60405180910390fd5b60405180602001604052808281525060096000610c26610f6e565b81526020019081526020016000206000820151816000019080519060200190610c509291906117a6565b50905050610c5f336001610f77565b50565b610c6a61182c565b610c7382610f95565b610cb2576040517f08c379a0000000000000000000000000000000000000000000000000000000008152600401610ca990612653565b60405180910390fd5b60096000838152602001908152602001600020604051806020016040529081600082018054610ce0906121a2565b80601f0160208091040260200160405190810160405280929190818152602001828054610d0c906121a2565b8015610d595780601f10610d2e57610100808354040283529160200191610d59565b820191906000526020600020905b815481529060010190602001808311610d3c57829003601f168201915b5050505050815250509050919050565b600092915050565b600860009054906101000a900473ffffffffffffffffffffffffffffffffffffffff1673ffffffffffffffffffffffffffffffffffffffff163373ffffffffffffffffffffffffffffffffffffffff1614610e01576040517f08c379a0000000000000000000000000000000000000000000000000000000008152600401610df89061228b565b60405180910390fd5b47811115610e44576040517f08c379a0000000000000000000000000000000000000000000000000000000008152600401610e3b906126bf565b60405180910390fd5b8173ffffffffffffffffffffffffffffffffffffffff166108fc829081150290604051600060405180830381858888f19350505050158015610e8a573d6000803e3d6000fd5b505050565b600090565b610e9f816000611065565b50565b60008082905080610eb1610e8f565b11610f3757600054811015610f365760006004600083815260200190815260200160002054905060007c0100000000000000000000000000000000000000000000000000000000821603610f34575b60008103610f2a576004600083600190039350838152602001908152602001600020549050610f00565b8092505050610f69565b505b5b6040517fdf2d9b4200000000000000000000000000000000000000000000000000000000815260040160405180910390fd5b919050565b60008054905090565b610f9182826040518060200160405280600081525061133b565b5050565b600081610fa0610e8f565b11158015610faf575060005482105b8015610fed575060007c0100000000000000000000000000000000000000000000000000000000600460008581526020019081526020016000205416145b9050919050565b606060405180602001604052806000815250905090565b60606080604051019050806040528082600183039250600a81066030018353600a810490505b801561105157600183039250600a81066030018353600a81049050611031565b508181036020830392508083525050919050565b600061107083610ea2565b90506000819050821561114d5760008173ffffffffffffffffffffffffffffffffffffffff1661109e6115ee565b73ffffffffffffffffffffffffffffffffffffffff1614806110cd57506110cc826110c76115ee565b610d69565b5b8061111257506110db6115ee565b73ffffffffffffffffffffffffffffffffffffffff166110fa86610604565b73ffffffffffffffffffffffffffffffffffffffff16145b90508061114b576040517f59c896be00000000000000000000000000000000000000000000000000000000815260040160405180910390fd5b505b61115b8160008660016115f6565b6006600085815260200190815260200160002060006101000a81549073ffffffffffffffffffffffffffffffffffffffff0219169055600160806001901b03600560008373ffffffffffffffffffffffffffffffffffffffff1673ffffffffffffffffffffffffffffffffffffffff168152602001908152602001600020600082825401925050819055507c02000000000000000000000000000000000000000000000000000000007c010000000000000000000000000000000000000000000000000000000060a042901b611230846115fc565b171717600460008681526020019081526020016000208190555060007c02000000000000000000000000000000000000000000000000000000008316036112b957600060018501905060006004600083815260200190815260200160002054036112b75760005481146112b6578260046000838152602001908152602001600020819055505b5b505b83600073ffffffffffffffffffffffffffffffffffffffff168273ffffffffffffffffffffffffffffffffffffffff167fddf252ad1be2c89b69c2b068fc378daa952ba7f163c4a11628f55a4df523b3ef60405160405180910390a4611323816000866001611606565b60016000815480929190600101919050555050505050565b600080549050600073ffffffffffffffffffffffffffffffffffffffff168473ffffffffffffffffffffffffffffffffffffffff16036113a7576040517f2e07630000000000000000000000000000000000000000000000000000000000815260040160405180910390fd5b600083036113e1576040517fb562e8dd00000000000000000000000000000000000000000000000000000000815260040160405180910390fd5b6113ee60008583866115f6565b600160406001901b178302600560008673ffffffffffffffffffffffffffffffffffffffff1673ffffffffffffffffffffffffffffffffffffffff1681526020019081526020016000206000828254019250508190555060e16114536001851461160c565b901b60a042901b611463866115fc565b1717600460008381526020019081526020016000208190555060008190506000848201905060008673ffffffffffffffffffffffffffffffffffffffff163b14611567575b818673ffffffffffffffffffffffffffffffffffffffff16600073ffffffffffffffffffffffffffffffffffffffff167fddf252ad1be2c89b69c2b068fc378daa952ba7f163c4a11628f55a4df523b3ef60405160405180910390a46115176000878480600101955087611616565b61154d576040517fd1a57ed600000000000000000000000000000000000000000000000000000000815260040160405180910390fd5b8082106114a857826000541461156257600080fd5b6115d2565b5b818060010192508673ffffffffffffffffffffffffffffffffffffffff16600073ffffffffffffffffffffffffffffffffffffffff167fddf252ad1be2c89b69c2b068fc378daa952ba7f163c4a11628f55a4df523b3ef60405160405180910390a4808210611568575b8160008190555050506115e86000858386611606565b50505050565b600033905090565b50505050565b6000819050919050565b50505050565b6000819050919050565b60008373ffffffffffffffffffffffffffffffffffffffff1663150b7a0261163c6115ee565b8786866040518563ffffffff1660e01b815260040161165e9493929190612734565b6020604051808303816000875af192505050801561169a57506040513d601f19601f820116820180604052508101906116979190612795565b60015b611713573d80600081146116ca576040519150601f19603f3d011682016040523d82523d6000602084013e6116cf565b606091505b50600081510361170b576040517fd1a57ed600000000000000000000000000000000000000000000000000000000815260040160405180910390fd5b805181602001fd5b63150b7a0260e01b7bffffffffffffffffffffffffffffffffffffffffffffffffffffffff1916817bffffffffffffffffffffffffffffffffffffffffffffffffffffffff191614915050949350505050565b508054611772906121a2565b6000825580601f1061178457506117a3565b601f0160209004906000526020600020908101906117a2919061183f565b5b50565b8280546117b2906121a2565b90600052602060002090601f0160209004810192826117d4576000855561181b565b82601f106117ed57805160ff191683800117855561181b565b8280016001018555821561181b579182015b8281111561181a5782518255916020019190600101906117ff565b5b509050611828919061183f565b5090565b6040518060200160405280606081525090565b5b80821115611858576000816000905550600101611840565b5090565b600082825260208201905092915050565b7f46616c6c6261636b2066756e6374696f6e2c2074616b6520796f7572206d6f6e60008201527f6579206261636b00000000000000000000000000000000000000000000000000602082015250565b60006118c960278361185c565b91506118d48261186d565b604082019050919050565b600060208201905081810360008301526118f8816118bc565b9050919050565b6000604051905090565b600080fd5b600080fd5b60007fffffffff0000000000000000000000000000000000000000000000000000000082169050919050565b61194881611913565b811461195357600080fd5b50565b6000813590506119658161193f565b92915050565b60006020828403121561198157611980611909565b5b600061198f84828501611956565b91505092915050565b60008115159050919050565b6119ad81611998565b82525050565b60006020820190506119c860008301846119a4565b92915050565b600081519050919050565b60005b838110156119f75780820151818401526020810190506119dc565b83811115611a06576000848401525b50505050565b6000601f19601f8301169050919050565b6000611a28826119ce565b611a32818561185c565b9350611a428185602086016119d9565b611a4b81611a0c565b840191505092915050565b60006020820190508181036000830152611a708184611a1d565b905092915050565b6000819050919050565b611a8b81611a78565b8114611a9657600080fd5b50565b600081359050611aa881611a82565b92915050565b600060208284031215611ac457611ac3611909565b5b6000611ad284828501611a99565b91505092915050565b600073ffffffffffffffffffffffffffffffffffffffff82169050919050565b6000611b0682611adb565b9050919050565b611b1681611afb565b82525050565b6000602082019050611b316000830184611b0d565b92915050565b611b4081611afb565b8114611b4b57600080fd5b50565b600081359050611b5d81611b37565b92915050565b60008060408385031215611b7a57611b79611909565b5b6000611b8885828601611b4e565b9250506020611b9985828601611a99565b9150509250929050565b611bac81611a78565b82525050565b6000602082019050611bc76000830184611ba3565b92915050565b600080600060608486031215611be657611be5611909565b5b6000611bf486828701611b4e565b9350506020611c0586828701611b4e565b9250506040611c1686828701611a99565b9150509250925092565b600060208284031215611c3657611c35611909565b5b6000611c4484828501611b4e565b91505092915050565b600080fd5b7f4e487b7100000000000000000000000000000000000000000000000000000000600052604160045260246000fd5b611c8a82611a0c565b810181811067ffffffffffffffff82111715611ca957611ca8611c52565b5b80604052505050565b6000611cbc6118ff565b9050611cc88282611c81565b919050565b600067ffffffffffffffff821115611ce857611ce7611c52565b5b602082029050602081019050919050565b600080fd5b600080fd5b600067ffffffffffffffff821115611d1e57611d1d611c52565b5b611d2782611a0c565b9050602081019050919050565b82818337600083830152505050565b6000611d56611d5184611d03565b611cb2565b905082815260208101848484011115611d7257611d71611cfe565b5b611d7d848285611d34565b509392505050565b600082601f830112611d9a57611d99611c4d565b5b8135611daa848260208601611d43565b91505092915050565b6000611dc6611dc184611ccd565b611cb2565b90508083825260208201905060208402830185811115611de957611de8611cf9565b5b835b81811015611e3057803567ffffffffffffffff811115611e0e57611e0d611c4d565b5b808601611e1b8982611d85565b85526020850194505050602081019050611deb565b5050509392505050565b600082601f830112611e4f57611e4e611c4d565b5b8135611e5f848260208601611db3565b91505092915050565b60008060408385031215611e7f57611e7e611909565b5b600083013567ffffffffffffffff811115611e9d57611e9c61190e565b5b611ea985828601611e3a565b9250506020611eba85828601611a99565b9150509250929050565b611ecd81611998565b8114611ed857600080fd5b50565b600081359050611eea81611ec4565b92915050565b60008060408385031215611f0757611f06611909565b5b6000611f1585828601611b4e565b9250506020611f2685828601611edb565b9150509250929050565b600067ffffffffffffffff821115611f4b57611f4a611c52565b5b611f5482611a0c565b9050602081019050919050565b6000611f74611f6f84611f30565b611cb2565b905082815260208101848484011115611f9057611f8f611cfe565b5b611f9b848285611d34565b509392505050565b600082601f830112611fb857611fb7611c4d565b5b8135611fc8848260208601611f61565b91505092915050565b60008060008060808587031215611feb57611fea611909565b5b6000611ff987828801611b4e565b945050602061200a87828801611b4e565b935050604061201b87828801611a99565b925050606085013567ffffffffffffffff81111561203c5761203b61190e565b5b61204887828801611fa3565b91505092959194509250565b60006020828403121561206a57612069611909565b5b600082013567ffffffffffffffff8111156120885761208761190e565b5b61209484828501611d85565b91505092915050565b600082825260208201905092915050565b60006120b9826119ce565b6120c3818561209d565b93506120d38185602086016119d9565b6120dc81611a0c565b840191505092915050565b6000602083016000830151848203600086015261210482826120ae565b9150508091505092915050565b6000602082019050818103600083015261212b81846120e7565b905092915050565b6000806040838503121561214a57612149611909565b5b600061215885828601611b4e565b925050602061216985828601611b4e565b9150509250929050565b7f4e487b7100000000000000000000000000000000000000000000000000000000600052602260045260246000fd5b600060028204905060018216806121ba57607f821691505b6020821081036121cd576121cc612173565b5b50919050565b7f534f554c424f554e440000000000000000000000000000000000000000000000600082015250565b600061220960098361185c565b9150612214826121d3565b602082019050919050565b60006020820190508181036000830152612238816121fc565b9050919050565b7f4e6f7420617574686f72697a6564000000000000000000000000000000000000600082015250565b6000612275600e8361185c565b91506122808261223f565b602082019050919050565b600060208201905081810360008301526122a481612268565b9050919050565b7f596f752063616e206e6f74206261746368206d696e7420612073696e676c652060008201527f626f6f6b00000000000000000000000000000000000000000000000000000000602082015250565b600061230760248361185c565b9150612312826122ab565b604082019050919050565b60006020820190508181036000830152612336816122fa565b9050919050565b7f4d6178696d756d206261746368206d696e7420636f756e742069732031303000600082015250565b6000612373601f8361185c565b915061237e8261233d565b602082019050919050565b600060208201905081810360008301526123a281612366565b9050919050565b7f4e487b7100000000000000000000000000000000000000000000000000000000600052601160045260246000fd5b60006123e382611a78565b91506123ee83611a78565b9250817fffffffffffffffffffffffffffffffffffffffffffffffffffffffffffffffff0483118215151615612427576124266123a9565b5b828202905092915050565b7f4261746368206d696e7420636f737420697320302e3030303520657468202a2060008201527f62617463684d696e7453697a6500000000000000000000000000000000000000602082015250565b600061248e602d8361185c565b915061249982612432565b604082019050919050565b600060208201905081810360008301526124bd81612481565b9050919050565b7f4e487b7100000000000000000000000000000000000000000000000000000000600052603260045260246000fd5b60006124fe82611a78565b91507fffffffffffffffffffffffffffffffffffffffffffffffffffffffffffffffff82036125305761252f6123a9565b5b600182019050919050565b600081905092915050565b6000612551826119ce565b61255b818561253b565b935061256b8185602086016119d9565b80840191505092915050565b60006125838285612546565b915061258f8284612546565b91508190509392505050565b7f426f6f6b206d696e7420636f737420697320302e303031206574682e00000000600082015250565b60006125d1601c8361185c565b91506125dc8261259b565b602082019050919050565b60006020820190508181036000830152612600816125c4565b9050919050565b7f426f6f6b20646f6573206e6f7420657869737400000000000000000000000000600082015250565b600061263d60138361185c565b915061264882612607565b602082019050919050565b6000602082019050818103600083015261266c81612630565b9050919050565b7f4e6f7420656e6f7567682062616c616e63650000000000000000000000000000600082015250565b60006126a960128361185c565b91506126b482612673565b602082019050919050565b600060208201905081810360008301526126d88161269c565b9050919050565b600081519050919050565b600082825260208201905092915050565b6000612706826126df565b61271081856126ea565b93506127208185602086016119d9565b61272981611a0c565b840191505092915050565b60006080820190506127496000830187611b0d565b6127566020830186611b0d565b6127636040830185611ba3565b818103606083015261277581846126fb565b905095945050505050565b60008151905061278f8161193f565b92915050565b6000602082840312156127ab576127aa611909565b5b60006127b984828501612780565b9150509291505056fea2646970667358221220e281582996ac673acee46ef5276654c5e3ac1146f3a9f34fd58adc44ea558b8f64736f6c634300080e0033",
  "immutableReferences": {},
  "source": "// SPDX-License-Identifier: MIT\npragma solidity ^0.8.9;\n\nimport \"erc721a/contracts/ERC721A.sol\";\n\ncontract soulboundLibrary is ERC721A {\n    address _owner;\n    mapping(uint256 => Book) books;\n\n    struct Book {\n        string isbn;\n    }\n\n    constructor(string memory name_, string memory symbol_)\n        ERC721A(name_, symbol_)\n    {\n        _owner = msg.sender;\n    }\n\n    receive() external payable {\n        revert(\"Fallback function, take your money back\");\n    }\n\n    function getBook(uint256 id) public view returns (Book memory) {\n        require(_exists(id), \"Book does not exist\");\n        return books[id];\n    }\n\n    //[\"a\",\"b\"]\n    function mint(string memory isbn_) public payable {\n        require(msg.value == 1000000000000000, \"Book mint cost is 0.001 eth.\");\n        //require(isbn_.length == 10, \"ISBN length not valid.\");\n\n        books[_nextTokenId()] = Book(isbn_);\n        _safeMint(msg.sender, 1);\n    }\n\n    function batchMint(string[] memory isbns_, uint256 batchMintSize)\n        public\n        payable\n    {\n        require(batchMintSize > 1, \"You can not batch mint a single book\");\n        require(batchMintSize <= 100, \"Maximum batch mint count is 100\");\n        require(\n            msg.value == (500000000000000 * batchMintSize),\n            \"Batch mint cost is 0.0005 eth * batchMintSize\"\n        );\n\n        uint256 tokenID = _nextTokenId();\n        _safeMint(msg.sender, batchMintSize);\n\n        for (uint256 i = 0; i < batchMintSize; i++) {\n            books[tokenID] = Book(isbns_[i]);\n            tokenID++;\n        }\n    }\n\n    function burn(uint256 tokenID_) public {\n        require(\n            ownerOf(tokenID_) == msg.sender || _owner == msg.sender,\n            \"Not authorized\"\n        );\n        _burn(tokenID_);\n        delete books[tokenID_];\n    }\n\n    function withdraw(address _to, uint256 amount) public {\n        require(msg.sender == _owner, \"Not authorized\");\n        require(amount <= address(this).balance, \"Not enough balance\");\n        payable(_to).transfer(amount);\n    }\n}\n",
  "sourcePath": "/Users/ahmetomer/soulboundLibrary/contracts/soulboundLibrary.sol",
  "compiler": {
    "name": "solc",
    "version": "0.8.14+commit.80d49f37.Emscripten.clang"
  },
  "schemaVersion": "3.4.7",
  "updatedAt": "2022-06-01T12:26:55.788Z",
  "networkType": "ethereum",
  "devdoc": {
    "kind": "dev",
    "methods": {
      "approve(address,uint256)": {
        "details": "See {IERC721-approve}."
      },
      "balanceOf(address)": {
        "details": "See {IERC721-balanceOf}."
      },
      "getApproved(uint256)": {
        "details": "See {IERC721-getApproved}."
      },
      "isApprovedForAll(address,address)": {
        "details": "See {IERC721-isApprovedForAll}."
      },
      "name()": {
        "details": "See {IERC721Metadata-name}."
      },
      "ownerOf(uint256)": {
        "details": "See {IERC721-ownerOf}."
      },
      "safeTransferFrom(address,address,uint256)": {
        "details": "See {IERC721-safeTransferFrom}."
      },
      "safeTransferFrom(address,address,uint256,bytes)": {
        "details": "See {IERC721-safeTransferFrom}."
      },
      "setApprovalForAll(address,bool)": {
        "details": "See {IERC721-setApprovalForAll}."
      },
      "supportsInterface(bytes4)": {
        "details": "See {IERC165-supportsInterface}."
      },
      "symbol()": {
        "details": "See {IERC721Metadata-symbol}."
      },
      "tokenURI(uint256)": {
        "details": "See {IERC721Metadata-tokenURI}."
      },
      "totalSupply()": {
        "details": "Returns the total number of tokens in existence. Burned tokens will reduce the count.  To get the total number of tokens minted, please see `_totalMinted`."
      },
      "transferFrom(address,address,uint256)": {
        "details": "See {IERC721-transferFrom}."
      }
    },
    "version": 1
  },
  "userdoc": {
    "errors": {
      "ApprovalCallerNotOwnerNorApproved()": [
        {
          "notice": "The caller must own the token or be an approved operator."
        }
      ],
      "ApprovalQueryForNonexistentToken()": [
        {
          "notice": "The token does not exist."
        }
      ],
      "ApprovalToCurrentOwner()": [
        {
          "notice": "The caller cannot approve to the current owner."
        }
      ],
      "ApproveToCaller()": [
        {
          "notice": "The caller cannot approve to their own address."
        }
      ],
      "BalanceQueryForZeroAddress()": [
        {
          "notice": "Cannot query the balance for the zero address."
        }
      ],
      "MintToZeroAddress()": [
        {
          "notice": "Cannot mint to the zero address."
        }
      ],
      "MintZeroQuantity()": [
        {
          "notice": "The quantity of tokens minted must be more than zero."
        }
      ],
      "OwnerQueryForNonexistentToken()": [
        {
          "notice": "The token does not exist."
        }
      ],
      "TransferCallerNotOwnerNorApproved()": [
        {
          "notice": "The caller must own the token or be an approved operator."
        }
      ],
      "TransferFromIncorrectOwner()": [
        {
          "notice": "The token must be owned by `from`."
        }
      ],
      "TransferToNonERC721ReceiverImplementer()": [
        {
          "notice": "Cannot safely transfer to a contract that does not implement the ERC721Receiver interface."
        }
      ],
      "TransferToZeroAddress()": [
        {
          "notice": "Cannot transfer to the zero address."
        }
      ],
      "URIQueryForNonexistentToken()": [
        {
          "notice": "The token does not exist."
        }
      ]
    },
    "kind": "user",
    "methods": {},
    "version": 1
  }
}