{
  "contractName": "soulboundLibrary",
  "abi": [
    {
      "inputs": [
        {
          "internalType": "string",
          "name": "name_",
          "type": "string"
        },
        {
          "internalType": "string",
          "name": "symbol_",
          "type": "string"
        }
      ],
      "stateMutability": "nonpayable",
      "type": "constructor"
    },
    {
      "inputs": [],
      "name": "ApprovalCallerNotOwnerNorApproved",
      "type": "error"
    },
    {
      "inputs": [],
      "name": "ApprovalQueryForNonexistentToken",
      "type": "error"
    },
    {
      "inputs": [],
      "name": "ApprovalToCurrentOwner",
      "type": "error"
    },
    {
      "inputs": [],
      "name": "ApproveToCaller",
      "type": "error"
    },
    {
      "inputs": [],
      "name": "BalanceQueryForZeroAddress",
      "type": "error"
    },
    {
      "inputs": [],
      "name": "MintToZeroAddress",
      "type": "error"
    },
    {
      "inputs": [],
      "name": "MintZeroQuantity",
      "type": "error"
    },
    {
      "inputs": [],
      "name": "OwnerQueryForNonexistentToken",
      "type": "error"
    },
    {
      "inputs": [],
      "name": "TransferCallerNotOwnerNorApproved",
      "type": "error"
    },
    {
      "inputs": [],
      "name": "TransferFromIncorrectOwner",
      "type": "error"
    },
    {
      "inputs": [],
      "name": "TransferToNonERC721ReceiverImplementer",
      "type": "error"
    },
    {
      "inputs": [],
      "name": "TransferToZeroAddress",
      "type": "error"
    },
    {
      "inputs": [],
      "name": "URIQueryForNonexistentToken",
      "type": "error"
    },
    {
      "anonymous": false,
      "inputs": [
        {
          "indexed": true,
          "internalType": "address",
          "name": "owner",
          "type": "address"
        },
        {
          "indexed": true,
          "internalType": "address",
          "name": "approved",
          "type": "address"
        },
        {
          "indexed": true,
          "internalType": "uint256",
          "name": "tokenId",
          "type": "uint256"
        }
      ],
      "name": "Approval",
      "type": "event"
    },
    {
      "anonymous": false,
      "inputs": [
        {
          "indexed": true,
          "internalType": "address",
          "name": "owner",
          "type": "address"
        },
        {
          "indexed": true,
          "internalType": "address",
          "name": "operator",
          "type": "address"
        },
        {
          "indexed": false,
          "internalType": "bool",
          "name": "approved",
          "type": "bool"
        }
      ],
      "name": "ApprovalForAll",
      "type": "event"
    },
    {
      "anonymous": false,
      "inputs": [
        {
          "indexed": true,
          "internalType": "address",
          "name": "from",
          "type": "address"
        },
        {
          "indexed": true,
          "internalType": "address",
          "name": "to",
          "type": "address"
        },
        {
          "indexed": true,
          "internalType": "uint256",
          "name": "tokenId",
          "type": "uint256"
        }
      ],
      "name": "Transfer",
      "type": "event"
    },
    {
      "inputs": [
        {
          "internalType": "address",
          "name": "to",
          "type": "address"
        },
        {
          "internalType": "uint256",
          "name": "tokenId",
          "type": "uint256"
        }
      ],
      "name": "approve",
      "outputs": [],
      "stateMutability": "nonpayable",
      "type": "function"
    },
    {
      "inputs": [
        {
          "internalType": "address",
          "name": "owner",
          "type": "address"
        }
      ],
      "name": "balanceOf",
      "outputs": [
        {
          "internalType": "uint256",
          "name": "",
          "type": "uint256"
        }
      ],
      "stateMutability": "view",
      "type": "function",
      "constant": true
    },
    {
      "inputs": [
        {
          "internalType": "uint256",
          "name": "tokenId",
          "type": "uint256"
        }
      ],
      "name": "getApproved",
      "outputs": [
        {
          "internalType": "address",
          "name": "",
          "type": "address"
        }
      ],
      "stateMutability": "view",
      "type": "function",
      "constant": true
    },
    {
      "inputs": [
        {
          "internalType": "address",
          "name": "owner",
          "type": "address"
        },
        {
          "internalType": "address",
          "name": "operator",
          "type": "address"
        }
      ],
      "name": "isApprovedForAll",
      "outputs": [
        {
          "internalType": "bool",
          "name": "",
          "type": "bool"
        }
      ],
      "stateMutability": "view",
      "type": "function",
      "constant": true
    },
    {
      "inputs": [],
      "name": "name",
      "outputs": [
        {
          "internalType": "string",
          "name": "",
          "type": "string"
        }
      ],
      "stateMutability": "view",
      "type": "function",
      "constant": true
    },
    {
      "inputs": [
        {
          "internalType": "uint256",
          "name": "tokenId",
          "type": "uint256"
        }
      ],
      "name": "ownerOf",
      "outputs": [
        {
          "internalType": "address",
          "name": "",
          "type": "address"
        }
      ],
      "stateMutability": "view",
      "type": "function",
      "constant": true
    },
    {
      "inputs": [
        {
          "internalType": "address",
          "name": "from",
          "type": "address"
        },
        {
          "internalType": "address",
          "name": "to",
          "type": "address"
        },
        {
          "internalType": "uint256",
          "name": "tokenId",
          "type": "uint256"
        }
      ],
      "name": "safeTransferFrom",
      "outputs": [],
      "stateMutability": "nonpayable",
      "type": "function"
    },
    {
      "inputs": [
        {
          "internalType": "address",
          "name": "from",
          "type": "address"
        },
        {
          "internalType": "address",
          "name": "to",
          "type": "address"
        },
        {
          "internalType": "uint256",
          "name": "tokenId",
          "type": "uint256"
        },
        {
          "internalType": "bytes",
          "name": "_data",
          "type": "bytes"
        }
      ],
      "name": "safeTransferFrom",
      "outputs": [],
      "stateMutability": "nonpayable",
      "type": "function"
    },
    {
      "inputs": [
        {
          "internalType": "address",
          "name": "operator",
          "type": "address"
        },
        {
          "internalType": "bool",
          "name": "approved",
          "type": "bool"
        }
      ],
      "name": "setApprovalForAll",
      "outputs": [],
      "stateMutability": "nonpayable",
      "type": "function"
    },
    {
      "inputs": [
        {
          "internalType": "bytes4",
          "name": "interfaceId",
          "type": "bytes4"
        }
      ],
      "name": "supportsInterface",
      "outputs": [
        {
          "internalType": "bool",
          "name": "",
          "type": "bool"
        }
      ],
      "stateMutability": "view",
      "type": "function",
      "constant": true
    },
    {
      "inputs": [],
      "name": "symbol",
      "outputs": [
        {
          "internalType": "string",
          "name": "",
          "type": "string"
        }
      ],
      "stateMutability": "view",
      "type": "function",
      "constant": true
    },
    {
      "inputs": [
        {
          "internalType": "uint256",
          "name": "tokenId",
          "type": "uint256"
        }
      ],
      "name": "tokenURI",
      "outputs": [
        {
          "internalType": "string",
          "name": "",
          "type": "string"
        }
      ],
      "stateMutability": "view",
      "type": "function",
      "constant": true
    },
    {
      "inputs": [],
      "name": "totalSupply",
      "outputs": [
        {
          "internalType": "uint256",
          "name": "",
          "type": "uint256"
        }
      ],
      "stateMutability": "view",
      "type": "function",
      "constant": true
    },
    {
      "inputs": [
        {
          "internalType": "address",
          "name": "from",
          "type": "address"
        },
        {
          "internalType": "address",
          "name": "to",
          "type": "address"
        },
        {
          "internalType": "uint256",
          "name": "tokenId",
          "type": "uint256"
        }
      ],
      "name": "transferFrom",
      "outputs": [],
      "stateMutability": "nonpayable",
      "type": "function"
    },
    {
      "stateMutability": "payable",
      "type": "receive",
      "payable": true
    },
    {
      "inputs": [
        {
          "internalType": "uint256",
          "name": "id",
          "type": "uint256"
        }
      ],
      "name": "getBook",
      "outputs": [
        {
          "components": [
            {
              "internalType": "string",
              "name": "isbn",
              "type": "string"
            }
          ],
          "internalType": "struct soulboundLibrary.Book",
          "name": "",
          "type": "tuple"
        }
      ],
      "stateMutability": "view",
      "type": "function",
      "constant": true
    },
    {
      "inputs": [
        {
          "internalType": "string",
          "name": "isbn_",
          "type": "string"
        }
      ],
      "name": "mint",
      "outputs": [],
      "stateMutability": "payable",
      "type": "function",
      "payable": true
    },
    {
      "inputs": [
        {
          "internalType": "string[]",
          "name": "authors_",
          "type": "string[]"
        },
        {
          "internalType": "string[]",
          "name": "names_",
          "type": "string[]"
        },
        {
          "internalType": "string[]",
          "name": "isbns_",
          "type": "string[]"
        },
        {
          "internalType": "uint256",
          "name": "batchMintSize",
          "type": "uint256"
        }
      ],
      "name": "batchMint",
      "outputs": [],
      "stateMutability": "payable",
      "type": "function",
      "payable": true
    },
    {
      "inputs": [
        {
          "internalType": "uint256",
          "name": "tokenID_",
          "type": "uint256"
        }
      ],
      "name": "burn",
      "outputs": [],
      "stateMutability": "nonpayable",
      "type": "function"
    },
    {
      "inputs": [
        {
          "internalType": "address",
          "name": "_to",
          "type": "address"
        },
        {
          "internalType": "uint256",
          "name": "amount",
          "type": "uint256"
        }
      ],
      "name": "withdraw",
      "outputs": [],
      "stateMutability": "nonpayable",
      "type": "function"
    }
  ],
  "bytecode": "0x60806040523480156200001157600080fd5b5060405162002d3738038062002d3783398181016040528101906200003791906200031e565b8181816002908051906020019062000051929190620000d1565b5080600390805190602001906200006a929190620000d1565b506200007b620000cc60201b60201c565b600081905550505033600860006101000a81548173ffffffffffffffffffffffffffffffffffffffff021916908373ffffffffffffffffffffffffffffffffffffffff160217905550505062000407565b600090565b828054620000df90620003d2565b90600052602060002090601f0160209004810192826200010357600085556200014f565b82601f106200011e57805160ff19168380011785556200014f565b828001600101855582156200014f579182015b828111156200014e57825182559160200191906001019062000131565b5b5090506200015e919062000162565b5090565b5b808211156200017d57600081600090555060010162000163565b5090565b6000604051905090565b600080fd5b600080fd5b600080fd5b600080fd5b6000601f19601f8301169050919050565b7f4e487b7100000000000000000000000000000000000000000000000000000000600052604160045260246000fd5b620001ea826200019f565b810181811067ffffffffffffffff821117156200020c576200020b620001b0565b5b80604052505050565b60006200022162000181565b90506200022f8282620001df565b919050565b600067ffffffffffffffff821115620002525762000251620001b0565b5b6200025d826200019f565b9050602081019050919050565b60005b838110156200028a5780820151818401526020810190506200026d565b838111156200029a576000848401525b50505050565b6000620002b7620002b18462000234565b62000215565b905082815260208101848484011115620002d657620002d56200019a565b5b620002e38482856200026a565b509392505050565b600082601f83011262000303576200030262000195565b5b815162000315848260208601620002a0565b91505092915050565b600080604083850312156200033857620003376200018b565b5b600083015167ffffffffffffffff81111562000359576200035862000190565b5b6200036785828601620002eb565b925050602083015167ffffffffffffffff8111156200038b576200038a62000190565b5b6200039985828601620002eb565b9150509250929050565b7f4e487b7100000000000000000000000000000000000000000000000000000000600052602260045260246000fd5b60006002820490506001821680620003eb57607f821691505b602082108103620004015762000400620003a3565b5b50919050565b61292080620004176000396000f3fe6080604052600436106101185760003560e01c806370a08231116100a0578063d85d3d2711610064578063d85d3d2714610405578063e0ff5b8b14610421578063e985e9c51461045e578063f24ce89e1461049b578063f3fef3a3146104b757610158565b806370a082311461030e57806395d89b411461034b578063a22cb46514610376578063b88d4fde1461039f578063c87b56dd146103c857610158565b806318160ddd116100e757806318160ddd1461022b57806323b872dd1461025657806342842e0e1461027f57806342966c68146102a85780636352211e146102d157610158565b806301ffc9a71461015d57806306fdde031461019a578063081812fc146101c5578063095ea7b31461020257610158565b36610158576040517f08c379a000000000000000000000000000000000000000000000000000000000815260040161014f9061193c565b60405180910390fd5b600080fd5b34801561016957600080fd5b50610184600480360381019061017f91906119c8565b6104e0565b6040516101919190611a10565b60405180910390f35b3480156101a657600080fd5b506101af610572565b6040516101bc9190611ab3565b60405180910390f35b3480156101d157600080fd5b506101ec60048036038101906101e79190611b0b565b610604565b6040516101f99190611b79565b60405180910390f35b34801561020e57600080fd5b5061022960048036038101906102249190611bc0565b61060b565b005b34801561023757600080fd5b50610240610646565b60405161024d9190611c0f565b60405180910390f35b34801561026257600080fd5b5061027d60048036038101906102789190611c2a565b61065d565b005b34801561028b57600080fd5b506102a660048036038101906102a19190611c2a565b610698565b005b3480156102b457600080fd5b506102cf60048036038101906102ca9190611b0b565b6106d3565b005b3480156102dd57600080fd5b506102f860048036038101906102f39190611b0b565b6107d3565b6040516103059190611b79565b60405180910390f35b34801561031a57600080fd5b5061033560048036038101906103309190611c7d565b6107e5565b6040516103429190611c0f565b60405180910390f35b34801561035757600080fd5b5061036061089d565b60405161036d9190611ab3565b60405180910390f35b34801561038257600080fd5b5061039d60048036038101906103989190611cd6565b61092f565b005b3480156103ab57600080fd5b506103c660048036038101906103c19190611e4b565b61096a565b005b3480156103d457600080fd5b506103ef60048036038101906103ea9190611b0b565b6109a5565b6040516103fc9190611ab3565b60405180910390f35b61041f600480360381019061041a9190611f6f565b610a43565b005b34801561042d57600080fd5b5061044860048036038101906104439190611b0b565b610ae3565b604051610455919061202c565b60405180910390f35b34801561046a57600080fd5b506104856004803603810190610480919061204e565b610bea565b6040516104929190611a10565b60405180910390f35b6104b560048036038101906104b09190612174565b610bf2565b005b3480156104c357600080fd5b506104de60048036038101906104d99190611bc0565b610dce565b005b60006301ffc9a760e01b827bffffffffffffffffffffffffffffffffffffffffffffffffffffffff1916148061053b57506380ac58cd60e01b827bffffffffffffffffffffffffffffffffffffffffffffffffffffffff1916145b8061056b5750635b5e139f60e01b827bffffffffffffffffffffffffffffffffffffffffffffffffffffffff1916145b9050919050565b6060600280546105819061225e565b80601f01602080910402602001604051908101604052809291908181526020018280546105ad9061225e565b80156105fa5780601f106105cf576101008083540402835291602001916105fa565b820191906000526020600020905b8154815290600101906020018083116105dd57829003601f168201915b5050505050905090565b6000919050565b6040517f08c379a000000000000000000000000000000000000000000000000000000000815260040161063d906122db565b60405180910390fd5b6000610650610eec565b6001546000540303905090565b6040517f08c379a000000000000000000000000000000000000000000000000000000000815260040161068f906122db565b60405180910390fd5b6040517f08c379a00000000000000000000000000000000000000000000000000000000081526004016106ca906122db565b60405180910390fd5b3373ffffffffffffffffffffffffffffffffffffffff166106f3826107d3565b73ffffffffffffffffffffffffffffffffffffffff16148061076257503373ffffffffffffffffffffffffffffffffffffffff16600860009054906101000a900473ffffffffffffffffffffffffffffffffffffffff1673ffffffffffffffffffffffffffffffffffffffff16145b6107a1576040517f08c379a000000000000000000000000000000000000000000000000000000000815260040161079890612347565b60405180910390fd5b6107aa81610ef1565b60096000828152602001908152602001600020600080820160006107ce91906117c3565b505050565b60006107de82610eff565b9050919050565b60008073ffffffffffffffffffffffffffffffffffffffff168273ffffffffffffffffffffffffffffffffffffffff160361084c576040517f8f4eb60400000000000000000000000000000000000000000000000000000000815260040160405180910390fd5b67ffffffffffffffff600560008473ffffffffffffffffffffffffffffffffffffffff1673ffffffffffffffffffffffffffffffffffffffff16815260200190815260200160002054169050919050565b6060600380546108ac9061225e565b80601f01602080910402602001604051908101604052809291908181526020018280546108d89061225e565b80156109255780601f106108fa57610100808354040283529160200191610925565b820191906000526020600020905b81548152906001019060200180831161090857829003601f168201915b5050505050905090565b6040517f08c379a0000000000000000000000000000000000000000000000000000000008152600401610961906122db565b60405180910390fd5b6040517f08c379a000000000000000000000000000000000000000000000000000000000815260040161099c906122db565b60405180910390fd5b60606109b082610fcb565b6109e6576040517fa14c4b5000000000000000000000000000000000000000000000000000000000815260040160405180910390fd5b60006109f061102a565b90506000815103610a105760405180602001604052806000815250610a3b565b80610a1a84611041565b604051602001610a2b9291906123a3565b6040516020818303038152906040525b915050919050565b66038d7ea4c680003414610a8c576040517f08c379a0000000000000000000000000000000000000000000000000000000008152600401610a8390612413565b60405180910390fd5b60405180602001604052808281525060096000610aa761109b565b81526020019081526020016000206000820151816000019080519060200190610ad1929190611803565b50905050610ae03360016110a4565b50565b610aeb611889565b610af482610fcb565b610b33576040517f08c379a0000000000000000000000000000000000000000000000000000000008152600401610b2a9061247f565b60405180910390fd5b60096000838152602001908152602001600020604051806020016040529081600082018054610b619061225e565b80601f0160208091040260200160405190810160405280929190818152602001828054610b8d9061225e565b8015610bda5780601f10610baf57610100808354040283529160200191610bda565b820191906000526020600020905b815481529060010190602001808311610bbd57829003601f168201915b5050505050815250509050919050565b600092915050565b60018111610c35576040517f08c379a0000000000000000000000000000000000000000000000000000000008152600401610c2c90612511565b60405180910390fd5b6064811115610c79576040517f08c379a0000000000000000000000000000000000000000000000000000000008152600401610c709061257d565b60405180910390fd5b808451148015610c895750808351145b8015610c955750808251145b610cd4576040517f08c379a0000000000000000000000000000000000000000000000000000000008152600401610ccb906125e9565b60405180910390fd5b806601c6bf52634000610ce79190612638565b3414610d28576040517f08c379a0000000000000000000000000000000000000000000000000000000008152600401610d1f90612704565b60405180910390fd5b6000610d3261109b565b9050610d3e33836110a4565b60005b82811015610dc6576040518060200160405280858381518110610d6757610d66612724565b5b6020026020010151815250600960008481526020019081526020016000206000820151816000019080519060200190610da1929190611803565b509050508180610db090612753565b9250508080610dbe90612753565b915050610d41565b505050505050565b600860009054906101000a900473ffffffffffffffffffffffffffffffffffffffff1673ffffffffffffffffffffffffffffffffffffffff163373ffffffffffffffffffffffffffffffffffffffff1614610e5e576040517f08c379a0000000000000000000000000000000000000000000000000000000008152600401610e5590612347565b60405180910390fd5b47811115610ea1576040517f08c379a0000000000000000000000000000000000000000000000000000000008152600401610e98906127e7565b60405180910390fd5b8173ffffffffffffffffffffffffffffffffffffffff166108fc829081150290604051600060405180830381858888f19350505050158015610ee7573d6000803e3d6000fd5b505050565b600090565b610efc8160006110c2565b50565b60008082905080610f0e610eec565b11610f9457600054811015610f935760006004600083815260200190815260200160002054905060007c0100000000000000000000000000000000000000000000000000000000821603610f91575b60008103610f87576004600083600190039350838152602001908152602001600020549050610f5d565b8092505050610fc6565b505b5b6040517fdf2d9b4200000000000000000000000000000000000000000000000000000000815260040160405180910390fd5b919050565b600081610fd6610eec565b11158015610fe5575060005482105b8015611023575060007c0100000000000000000000000000000000000000000000000000000000600460008581526020019081526020016000205416145b9050919050565b606060405180602001604052806000815250905090565b60606080604051019050806040528082600183039250600a81066030018353600a810490505b801561108757600183039250600a81066030018353600a81049050611067565b508181036020830392508083525050919050565b60008054905090565b6110be828260405180602001604052806000815250611398565b5050565b60006110cd83610eff565b9050600081905082156111aa5760008173ffffffffffffffffffffffffffffffffffffffff166110fb61164b565b73ffffffffffffffffffffffffffffffffffffffff16148061112a57506111298261112461164b565b610bea565b5b8061116f575061113861164b565b73ffffffffffffffffffffffffffffffffffffffff1661115786610604565b73ffffffffffffffffffffffffffffffffffffffff16145b9050806111a8576040517f59c896be00000000000000000000000000000000000000000000000000000000815260040160405180910390fd5b505b6111b8816000866001611653565b6006600085815260200190815260200160002060006101000a81549073ffffffffffffffffffffffffffffffffffffffff0219169055600160806001901b03600560008373ffffffffffffffffffffffffffffffffffffffff1673ffffffffffffffffffffffffffffffffffffffff168152602001908152602001600020600082825401925050819055507c02000000000000000000000000000000000000000000000000000000007c010000000000000000000000000000000000000000000000000000000060a042901b61128d84611659565b171717600460008681526020019081526020016000208190555060007c02000000000000000000000000000000000000000000000000000000008316036113165760006001850190506000600460008381526020019081526020016000205403611314576000548114611313578260046000838152602001908152602001600020819055505b5b505b83600073ffffffffffffffffffffffffffffffffffffffff168273ffffffffffffffffffffffffffffffffffffffff167fddf252ad1be2c89b69c2b068fc378daa952ba7f163c4a11628f55a4df523b3ef60405160405180910390a4611380816000866001611663565b60016000815480929190600101919050555050505050565b600080549050600073ffffffffffffffffffffffffffffffffffffffff168473ffffffffffffffffffffffffffffffffffffffff1603611404576040517f2e07630000000000000000000000000000000000000000000000000000000000815260040160405180910390fd5b6000830361143e576040517fb562e8dd00000000000000000000000000000000000000000000000000000000815260040160405180910390fd5b61144b6000858386611653565b600160406001901b178302600560008673ffffffffffffffffffffffffffffffffffffffff1673ffffffffffffffffffffffffffffffffffffffff1681526020019081526020016000206000828254019250508190555060e16114b060018514611669565b901b60a042901b6114c086611659565b1717600460008381526020019081526020016000208190555060008190506000848201905060008673ffffffffffffffffffffffffffffffffffffffff163b146115c4575b818673ffffffffffffffffffffffffffffffffffffffff16600073ffffffffffffffffffffffffffffffffffffffff167fddf252ad1be2c89b69c2b068fc378daa952ba7f163c4a11628f55a4df523b3ef60405160405180910390a46115746000878480600101955087611673565b6115aa576040517fd1a57ed600000000000000000000000000000000000000000000000000000000815260040160405180910390fd5b8082106115055782600054146115bf57600080fd5b61162f565b5b818060010192508673ffffffffffffffffffffffffffffffffffffffff16600073ffffffffffffffffffffffffffffffffffffffff167fddf252ad1be2c89b69c2b068fc378daa952ba7f163c4a11628f55a4df523b3ef60405160405180910390a48082106115c5575b8160008190555050506116456000858386611663565b50505050565b600033905090565b50505050565b6000819050919050565b50505050565b6000819050919050565b60008373ffffffffffffffffffffffffffffffffffffffff1663150b7a0261169961164b565b8786866040518563ffffffff1660e01b81526004016116bb949392919061285c565b6020604051808303816000875af19250505080156116f757506040513d601f19601f820116820180604052508101906116f491906128bd565b60015b611770573d8060008114611727576040519150601f19603f3d011682016040523d82523d6000602084013e61172c565b606091505b506000815103611768576040517fd1a57ed600000000000000000000000000000000000000000000000000000000815260040160405180910390fd5b805181602001fd5b63150b7a0260e01b7bffffffffffffffffffffffffffffffffffffffffffffffffffffffff1916817bffffffffffffffffffffffffffffffffffffffffffffffffffffffff191614915050949350505050565b5080546117cf9061225e565b6000825580601f106117e15750611800565b601f0160209004906000526020600020908101906117ff919061189c565b5b50565b82805461180f9061225e565b90600052602060002090601f0160209004810192826118315760008555611878565b82601f1061184a57805160ff1916838001178555611878565b82800160010185558215611878579182015b8281111561187757825182559160200191906001019061185c565b5b509050611885919061189c565b5090565b6040518060200160405280606081525090565b5b808211156118b557600081600090555060010161189d565b5090565b600082825260208201905092915050565b7f46616c6c6261636b2066756e6374696f6e2c2074616b6520796f7572206d6f6e60008201527f6579206261636b00000000000000000000000000000000000000000000000000602082015250565b60006119266027836118b9565b9150611931826118ca565b604082019050919050565b6000602082019050818103600083015261195581611919565b9050919050565b6000604051905090565b600080fd5b600080fd5b60007fffffffff0000000000000000000000000000000000000000000000000000000082169050919050565b6119a581611970565b81146119b057600080fd5b50565b6000813590506119c28161199c565b92915050565b6000602082840312156119de576119dd611966565b5b60006119ec848285016119b3565b91505092915050565b60008115159050919050565b611a0a816119f5565b82525050565b6000602082019050611a256000830184611a01565b92915050565b600081519050919050565b60005b83811015611a54578082015181840152602081019050611a39565b83811115611a63576000848401525b50505050565b6000601f19601f8301169050919050565b6000611a8582611a2b565b611a8f81856118b9565b9350611a9f818560208601611a36565b611aa881611a69565b840191505092915050565b60006020820190508181036000830152611acd8184611a7a565b905092915050565b6000819050919050565b611ae881611ad5565b8114611af357600080fd5b50565b600081359050611b0581611adf565b92915050565b600060208284031215611b2157611b20611966565b5b6000611b2f84828501611af6565b91505092915050565b600073ffffffffffffffffffffffffffffffffffffffff82169050919050565b6000611b6382611b38565b9050919050565b611b7381611b58565b82525050565b6000602082019050611b8e6000830184611b6a565b92915050565b611b9d81611b58565b8114611ba857600080fd5b50565b600081359050611bba81611b94565b92915050565b60008060408385031215611bd757611bd6611966565b5b6000611be585828601611bab565b9250506020611bf685828601611af6565b9150509250929050565b611c0981611ad5565b82525050565b6000602082019050611c246000830184611c00565b92915050565b600080600060608486031215611c4357611c42611966565b5b6000611c5186828701611bab565b9350506020611c6286828701611bab565b9250506040611c7386828701611af6565b9150509250925092565b600060208284031215611c9357611c92611966565b5b6000611ca184828501611bab565b91505092915050565b611cb3816119f5565b8114611cbe57600080fd5b50565b600081359050611cd081611caa565b92915050565b60008060408385031215611ced57611cec611966565b5b6000611cfb85828601611bab565b9250506020611d0c85828601611cc1565b9150509250929050565b600080fd5b600080fd5b7f4e487b7100000000000000000000000000000000000000000000000000000000600052604160045260246000fd5b611d5882611a69565b810181811067ffffffffffffffff82111715611d7757611d76611d20565b5b80604052505050565b6000611d8a61195c565b9050611d968282611d4f565b919050565b600067ffffffffffffffff821115611db657611db5611d20565b5b611dbf82611a69565b9050602081019050919050565b82818337600083830152505050565b6000611dee611de984611d9b565b611d80565b905082815260208101848484011115611e0a57611e09611d1b565b5b611e15848285611dcc565b509392505050565b600082601f830112611e3257611e31611d16565b5b8135611e42848260208601611ddb565b91505092915050565b60008060008060808587031215611e6557611e64611966565b5b6000611e7387828801611bab565b9450506020611e8487828801611bab565b9350506040611e9587828801611af6565b925050606085013567ffffffffffffffff811115611eb657611eb561196b565b5b611ec287828801611e1d565b91505092959194509250565b600067ffffffffffffffff821115611ee957611ee8611d20565b5b611ef282611a69565b9050602081019050919050565b6000611f12611f0d84611ece565b611d80565b905082815260208101848484011115611f2e57611f2d611d1b565b5b611f39848285611dcc565b509392505050565b600082601f830112611f5657611f55611d16565b5b8135611f66848260208601611eff565b91505092915050565b600060208284031215611f8557611f84611966565b5b600082013567ffffffffffffffff811115611fa357611fa261196b565b5b611faf84828501611f41565b91505092915050565b600082825260208201905092915050565b6000611fd482611a2b565b611fde8185611fb8565b9350611fee818560208601611a36565b611ff781611a69565b840191505092915050565b6000602083016000830151848203600086015261201f8282611fc9565b9150508091505092915050565b600060208201905081810360008301526120468184612002565b905092915050565b6000806040838503121561206557612064611966565b5b600061207385828601611bab565b925050602061208485828601611bab565b9150509250929050565b600067ffffffffffffffff8211156120a9576120a8611d20565b5b602082029050602081019050919050565b600080fd5b60006120d26120cd8461208e565b611d80565b905080838252602082019050602084028301858111156120f5576120f46120ba565b5b835b8181101561213c57803567ffffffffffffffff81111561211a57612119611d16565b5b8086016121278982611f41565b855260208501945050506020810190506120f7565b5050509392505050565b600082601f83011261215b5761215a611d16565b5b813561216b8482602086016120bf565b91505092915050565b6000806000806080858703121561218e5761218d611966565b5b600085013567ffffffffffffffff8111156121ac576121ab61196b565b5b6121b887828801612146565b945050602085013567ffffffffffffffff8111156121d9576121d861196b565b5b6121e587828801612146565b935050604085013567ffffffffffffffff8111156122065761220561196b565b5b61221287828801612146565b925050606061222387828801611af6565b91505092959194509250565b7f4e487b7100000000000000000000000000000000000000000000000000000000600052602260045260246000fd5b6000600282049050600182168061227657607f821691505b6020821081036122895761228861222f565b5b50919050565b7f534f554c424f554e440000000000000000000000000000000000000000000000600082015250565b60006122c56009836118b9565b91506122d08261228f565b602082019050919050565b600060208201905081810360008301526122f4816122b8565b9050919050565b7f4e6f7420617574686f72697a6564000000000000000000000000000000000000600082015250565b6000612331600e836118b9565b915061233c826122fb565b602082019050919050565b6000602082019050818103600083015261236081612324565b9050919050565b600081905092915050565b600061237d82611a2b565b6123878185612367565b9350612397818560208601611a36565b80840191505092915050565b60006123af8285612372565b91506123bb8284612372565b91508190509392505050565b7f426f6f6b206d696e7420636f737420697320302e303031206574682e00000000600082015250565b60006123fd601c836118b9565b9150612408826123c7565b602082019050919050565b6000602082019050818103600083015261242c816123f0565b9050919050565b7f426f6f6b20646f6573206e6f7420657869737400000000000000000000000000600082015250565b60006124696013836118b9565b915061247482612433565b602082019050919050565b600060208201905081810360008301526124988161245c565b9050919050565b7f596f752063616e206e6f74206261746368206d696e7420612073696e676c652060008201527f626f6f6b00000000000000000000000000000000000000000000000000000000602082015250565b60006124fb6024836118b9565b91506125068261249f565b604082019050919050565b6000602082019050818103600083015261252a816124ee565b9050919050565b7f4d6178696d756d206261746368206d696e7420636f756e742069732031303000600082015250565b6000612567601f836118b9565b915061257282612531565b602082019050919050565b600060208201905081810360008301526125968161255a565b9050919050565b7f496e636f6e73697374656e742064617461000000000000000000000000000000600082015250565b60006125d36011836118b9565b91506125de8261259d565b602082019050919050565b60006020820190508181036000830152612602816125c6565b9050919050565b7f4e487b7100000000000000000000000000000000000000000000000000000000600052601160045260246000fd5b600061264382611ad5565b915061264e83611ad5565b9250817fffffffffffffffffffffffffffffffffffffffffffffffffffffffffffffffff048311821515161561268757612686612609565b5b828202905092915050565b7f4261746368206d696e7420636f737420697320302e3030303520657468202a2060008201527f62617463684d696e7453697a6500000000000000000000000000000000000000602082015250565b60006126ee602d836118b9565b91506126f982612692565b604082019050919050565b6000602082019050818103600083015261271d816126e1565b9050919050565b7f4e487b7100000000000000000000000000000000000000000000000000000000600052603260045260246000fd5b600061275e82611ad5565b91507fffffffffffffffffffffffffffffffffffffffffffffffffffffffffffffffff82036127905761278f612609565b5b600182019050919050565b7f4e6f7420656e6f7567682062616c616e63650000000000000000000000000000600082015250565b60006127d16012836118b9565b91506127dc8261279b565b602082019050919050565b60006020820190508181036000830152612800816127c4565b9050919050565b600081519050919050565b600082825260208201905092915050565b600061282e82612807565b6128388185612812565b9350612848818560208601611a36565b61285181611a69565b840191505092915050565b60006080820190506128716000830187611b6a565b61287e6020830186611b6a565b61288b6040830185611c00565b818103606083015261289d8184612823565b905095945050505050565b6000815190506128b78161199c565b92915050565b6000602082840312156128d3576128d2611966565b5b60006128e1848285016128a8565b9150509291505056fea264697066735822122019751c0f2b4c8652c58dfdbc4b8e8be34e6ad5ced9ba60682e74e1ff82928b3e64736f6c634300080e0033",
  "immutableReferences": {},
  "source": "// SPDX-License-Identifier: MIT\npragma solidity ^0.8.9;\n\nimport \"erc721a/contracts/ERC721A.sol\";\n\ncontract soulboundLibrary is ERC721A {\n    address _owner;\n    mapping(uint256 => Book) books;\n\n    struct Book {\n        string isbn;\n    }\n\n    constructor(string memory name_, string memory symbol_)\n        ERC721A(name_, symbol_)\n    {\n        _owner = msg.sender;\n    }\n\n    receive() external payable {\n        revert(\"Fallback function, take your money back\");\n    }\n\n    function getBook(uint256 id) public view returns (Book memory) {\n        require(_exists(id), \"Book does not exist\");\n        return books[id];\n    }\n\n    //[\"a\",\"b\"]\n    function mint(string memory isbn_) public payable {\n        require(msg.value == 1000000000000000, \"Book mint cost is 0.001 eth.\");\n        //require(isbn_.length == 10, \"ISBN length not valid.\");\n\n        books[_nextTokenId()] = Book(isbn_);\n        _safeMint(msg.sender, 1);\n    }\n\n    function batchMint(\n        string[] memory authors_,\n        string[] memory names_,\n        string[] memory isbns_,\n        uint256 batchMintSize\n    ) public payable {\n        require(batchMintSize > 1, \"You can not batch mint a single book\");\n        require(batchMintSize <= 100, \"Maximum batch mint count is 100\");\n        require(\n            authors_.length == batchMintSize &&\n                names_.length == batchMintSize &&\n                isbns_.length == batchMintSize,\n            \"Inconsistent data\"\n        );\n        require(\n            msg.value == (500000000000000 * batchMintSize),\n            \"Batch mint cost is 0.0005 eth * batchMintSize\"\n        );\n\n        uint256 tokenID = _nextTokenId();\n        _safeMint(msg.sender, batchMintSize);\n\n        for (uint256 i = 0; i < batchMintSize; i++) {\n            books[tokenID] = Book(isbns_[i]);\n            tokenID++;\n        }\n    }\n\n    function burn(uint256 tokenID_) public {\n        require(\n            ownerOf(tokenID_) == msg.sender || _owner == msg.sender,\n            \"Not authorized\"\n        );\n        _burn(tokenID_);\n        delete books[tokenID_];\n    }\n\n    function withdraw(address _to, uint256 amount) public {\n        require(msg.sender == _owner, \"Not authorized\");\n        require(amount <= address(this).balance, \"Not enough balance\");\n        payable(_to).transfer(amount);\n    }\n}\n",
  "sourcePath": "/Users/ahmetomer/soulboundLibrary/contracts/soulboundLibrary.sol",
  "compiler": {
    "name": "solc",
    "version": "0.8.14+commit.80d49f37.Emscripten.clang"
  },
  "schemaVersion": "3.4.7",
  "updatedAt": "2022-05-31T10:14:28.806Z",
  "networkType": "ethereum",
  "devdoc": {
    "kind": "dev",
    "methods": {
      "approve(address,uint256)": {
        "details": "See {IERC721-approve}."
      },
      "balanceOf(address)": {
        "details": "See {IERC721-balanceOf}."
      },
      "getApproved(uint256)": {
        "details": "See {IERC721-getApproved}."
      },
      "isApprovedForAll(address,address)": {
        "details": "See {IERC721-isApprovedForAll}."
      },
      "name()": {
        "details": "See {IERC721Metadata-name}."
      },
      "ownerOf(uint256)": {
        "details": "See {IERC721-ownerOf}."
      },
      "safeTransferFrom(address,address,uint256)": {
        "details": "See {IERC721-safeTransferFrom}."
      },
      "safeTransferFrom(address,address,uint256,bytes)": {
        "details": "See {IERC721-safeTransferFrom}."
      },
      "setApprovalForAll(address,bool)": {
        "details": "See {IERC721-setApprovalForAll}."
      },
      "supportsInterface(bytes4)": {
        "details": "See {IERC165-supportsInterface}."
      },
      "symbol()": {
        "details": "See {IERC721Metadata-symbol}."
      },
      "tokenURI(uint256)": {
        "details": "See {IERC721Metadata-tokenURI}."
      },
      "totalSupply()": {
        "details": "Returns the total number of tokens in existence. Burned tokens will reduce the count.  To get the total number of tokens minted, please see `_totalMinted`."
      },
      "transferFrom(address,address,uint256)": {
        "details": "See {IERC721-transferFrom}."
      }
    },
    "version": 1
  },
  "userdoc": {
    "errors": {
      "ApprovalCallerNotOwnerNorApproved()": [
        {
          "notice": "The caller must own the token or be an approved operator."
        }
      ],
      "ApprovalQueryForNonexistentToken()": [
        {
          "notice": "The token does not exist."
        }
      ],
      "ApprovalToCurrentOwner()": [
        {
          "notice": "The caller cannot approve to the current owner."
        }
      ],
      "ApproveToCaller()": [
        {
          "notice": "The caller cannot approve to their own address."
        }
      ],
      "BalanceQueryForZeroAddress()": [
        {
          "notice": "Cannot query the balance for the zero address."
        }
      ],
      "MintToZeroAddress()": [
        {
          "notice": "Cannot mint to the zero address."
        }
      ],
      "MintZeroQuantity()": [
        {
          "notice": "The quantity of tokens minted must be more than zero."
        }
      ],
      "OwnerQueryForNonexistentToken()": [
        {
          "notice": "The token does not exist."
        }
      ],
      "TransferCallerNotOwnerNorApproved()": [
        {
          "notice": "The caller must own the token or be an approved operator."
        }
      ],
      "TransferFromIncorrectOwner()": [
        {
          "notice": "The token must be owned by `from`."
        }
      ],
      "TransferToNonERC721ReceiverImplementer()": [
        {
          "notice": "Cannot safely transfer to a contract that does not implement the ERC721Receiver interface."
        }
      ],
      "TransferToZeroAddress()": [
        {
          "notice": "Cannot transfer to the zero address."
        }
      ],
      "URIQueryForNonexistentToken()": [
        {
          "notice": "The token does not exist."
        }
      ]
    },
    "kind": "user",
    "methods": {},
    "version": 1
  }
}