{
  "contractName": "soulboundLibrary",
  "abi": [
    {
      "inputs": [
        {
          "internalType": "string",
          "name": "name_",
          "type": "string"
        },
        {
          "internalType": "string",
          "name": "symbol_",
          "type": "string"
        }
      ],
      "stateMutability": "nonpayable",
      "type": "constructor"
    },
    {
      "inputs": [],
      "name": "ApprovalCallerNotOwnerNorApproved",
      "type": "error"
    },
    {
      "inputs": [],
      "name": "ApprovalQueryForNonexistentToken",
      "type": "error"
    },
    {
      "inputs": [],
      "name": "ApprovalToCurrentOwner",
      "type": "error"
    },
    {
      "inputs": [],
      "name": "ApproveToCaller",
      "type": "error"
    },
    {
      "inputs": [],
      "name": "BalanceQueryForZeroAddress",
      "type": "error"
    },
    {
      "inputs": [],
      "name": "MintToZeroAddress",
      "type": "error"
    },
    {
      "inputs": [],
      "name": "MintZeroQuantity",
      "type": "error"
    },
    {
      "inputs": [],
      "name": "OwnerQueryForNonexistentToken",
      "type": "error"
    },
    {
      "inputs": [],
      "name": "TransferCallerNotOwnerNorApproved",
      "type": "error"
    },
    {
      "inputs": [],
      "name": "TransferFromIncorrectOwner",
      "type": "error"
    },
    {
      "inputs": [],
      "name": "TransferToNonERC721ReceiverImplementer",
      "type": "error"
    },
    {
      "inputs": [],
      "name": "TransferToZeroAddress",
      "type": "error"
    },
    {
      "inputs": [],
      "name": "URIQueryForNonexistentToken",
      "type": "error"
    },
    {
      "anonymous": false,
      "inputs": [
        {
          "indexed": true,
          "internalType": "address",
          "name": "owner",
          "type": "address"
        },
        {
          "indexed": true,
          "internalType": "address",
          "name": "approved",
          "type": "address"
        },
        {
          "indexed": true,
          "internalType": "uint256",
          "name": "tokenId",
          "type": "uint256"
        }
      ],
      "name": "Approval",
      "type": "event"
    },
    {
      "anonymous": false,
      "inputs": [
        {
          "indexed": true,
          "internalType": "address",
          "name": "owner",
          "type": "address"
        },
        {
          "indexed": true,
          "internalType": "address",
          "name": "operator",
          "type": "address"
        },
        {
          "indexed": false,
          "internalType": "bool",
          "name": "approved",
          "type": "bool"
        }
      ],
      "name": "ApprovalForAll",
      "type": "event"
    },
    {
      "anonymous": false,
      "inputs": [
        {
          "indexed": true,
          "internalType": "address",
          "name": "from",
          "type": "address"
        },
        {
          "indexed": true,
          "internalType": "address",
          "name": "to",
          "type": "address"
        },
        {
          "indexed": true,
          "internalType": "uint256",
          "name": "tokenId",
          "type": "uint256"
        }
      ],
      "name": "Transfer",
      "type": "event"
    },
    {
      "inputs": [
        {
          "internalType": "address",
          "name": "to",
          "type": "address"
        },
        {
          "internalType": "uint256",
          "name": "tokenId",
          "type": "uint256"
        }
      ],
      "name": "approve",
      "outputs": [],
      "stateMutability": "nonpayable",
      "type": "function"
    },
    {
      "inputs": [
        {
          "internalType": "address",
          "name": "owner",
          "type": "address"
        }
      ],
      "name": "balanceOf",
      "outputs": [
        {
          "internalType": "uint256",
          "name": "",
          "type": "uint256"
        }
      ],
      "stateMutability": "view",
      "type": "function"
    },
    {
      "inputs": [
        {
          "internalType": "uint256",
          "name": "tokenId",
          "type": "uint256"
        }
      ],
      "name": "getApproved",
      "outputs": [
        {
          "internalType": "address",
          "name": "",
          "type": "address"
        }
      ],
      "stateMutability": "view",
      "type": "function"
    },
    {
      "inputs": [
        {
          "internalType": "address",
          "name": "owner",
          "type": "address"
        },
        {
          "internalType": "address",
          "name": "operator",
          "type": "address"
        }
      ],
      "name": "isApprovedForAll",
      "outputs": [
        {
          "internalType": "bool",
          "name": "",
          "type": "bool"
        }
      ],
      "stateMutability": "view",
      "type": "function"
    },
    {
      "inputs": [],
      "name": "name",
      "outputs": [
        {
          "internalType": "string",
          "name": "",
          "type": "string"
        }
      ],
      "stateMutability": "view",
      "type": "function"
    },
    {
      "inputs": [
        {
          "internalType": "uint256",
          "name": "tokenId",
          "type": "uint256"
        }
      ],
      "name": "ownerOf",
      "outputs": [
        {
          "internalType": "address",
          "name": "",
          "type": "address"
        }
      ],
      "stateMutability": "view",
      "type": "function"
    },
    {
      "inputs": [
        {
          "internalType": "address",
          "name": "from",
          "type": "address"
        },
        {
          "internalType": "address",
          "name": "to",
          "type": "address"
        },
        {
          "internalType": "uint256",
          "name": "tokenId",
          "type": "uint256"
        }
      ],
      "name": "safeTransferFrom",
      "outputs": [],
      "stateMutability": "nonpayable",
      "type": "function"
    },
    {
      "inputs": [
        {
          "internalType": "address",
          "name": "from",
          "type": "address"
        },
        {
          "internalType": "address",
          "name": "to",
          "type": "address"
        },
        {
          "internalType": "uint256",
          "name": "tokenId",
          "type": "uint256"
        },
        {
          "internalType": "bytes",
          "name": "_data",
          "type": "bytes"
        }
      ],
      "name": "safeTransferFrom",
      "outputs": [],
      "stateMutability": "nonpayable",
      "type": "function"
    },
    {
      "inputs": [
        {
          "internalType": "address",
          "name": "operator",
          "type": "address"
        },
        {
          "internalType": "bool",
          "name": "approved",
          "type": "bool"
        }
      ],
      "name": "setApprovalForAll",
      "outputs": [],
      "stateMutability": "nonpayable",
      "type": "function"
    },
    {
      "inputs": [
        {
          "internalType": "bytes4",
          "name": "interfaceId",
          "type": "bytes4"
        }
      ],
      "name": "supportsInterface",
      "outputs": [
        {
          "internalType": "bool",
          "name": "",
          "type": "bool"
        }
      ],
      "stateMutability": "view",
      "type": "function"
    },
    {
      "inputs": [],
      "name": "symbol",
      "outputs": [
        {
          "internalType": "string",
          "name": "",
          "type": "string"
        }
      ],
      "stateMutability": "view",
      "type": "function"
    },
    {
      "inputs": [
        {
          "internalType": "uint256",
          "name": "tokenId",
          "type": "uint256"
        }
      ],
      "name": "tokenURI",
      "outputs": [
        {
          "internalType": "string",
          "name": "",
          "type": "string"
        }
      ],
      "stateMutability": "view",
      "type": "function"
    },
    {
      "inputs": [],
      "name": "totalSupply",
      "outputs": [
        {
          "internalType": "uint256",
          "name": "",
          "type": "uint256"
        }
      ],
      "stateMutability": "view",
      "type": "function"
    },
    {
      "inputs": [
        {
          "internalType": "address",
          "name": "from",
          "type": "address"
        },
        {
          "internalType": "address",
          "name": "to",
          "type": "address"
        },
        {
          "internalType": "uint256",
          "name": "tokenId",
          "type": "uint256"
        }
      ],
      "name": "transferFrom",
      "outputs": [],
      "stateMutability": "nonpayable",
      "type": "function"
    },
    {
      "stateMutability": "payable",
      "type": "receive"
    },
    {
      "inputs": [
        {
          "internalType": "uint256",
          "name": "id",
          "type": "uint256"
        }
      ],
      "name": "getBook",
      "outputs": [
        {
          "components": [
            {
              "internalType": "string",
              "name": "author",
              "type": "string"
            },
            {
              "internalType": "string",
              "name": "name",
              "type": "string"
            },
            {
              "internalType": "string",
              "name": "isbn",
              "type": "string"
            }
          ],
          "internalType": "struct soulboundLibrary.Book",
          "name": "",
          "type": "tuple"
        }
      ],
      "stateMutability": "view",
      "type": "function"
    },
    {
      "inputs": [
        {
          "internalType": "string",
          "name": "author_",
          "type": "string"
        },
        {
          "internalType": "string",
          "name": "name_",
          "type": "string"
        },
        {
          "internalType": "string",
          "name": "isbn_",
          "type": "string"
        }
      ],
      "name": "mint",
      "outputs": [],
      "stateMutability": "payable",
      "type": "function"
    },
    {
      "inputs": [
        {
          "internalType": "string[]",
          "name": "authors_",
          "type": "string[]"
        },
        {
          "internalType": "string[]",
          "name": "names_",
          "type": "string[]"
        },
        {
          "internalType": "string[]",
          "name": "isbns_",
          "type": "string[]"
        },
        {
          "internalType": "uint256",
          "name": "batchMintSize",
          "type": "uint256"
        }
      ],
      "name": "batchMint",
      "outputs": [],
      "stateMutability": "payable",
      "type": "function"
    },
    {
      "inputs": [
        {
          "internalType": "uint256",
          "name": "tokenID_",
          "type": "uint256"
        }
      ],
      "name": "burn",
      "outputs": [],
      "stateMutability": "nonpayable",
      "type": "function"
    },
    {
      "inputs": [
        {
          "internalType": "address",
          "name": "_to",
          "type": "address"
        },
        {
          "internalType": "uint256",
          "name": "amount",
          "type": "uint256"
        }
      ],
      "name": "withdraw",
      "outputs": [],
      "stateMutability": "nonpayable",
      "type": "function"
    }
  ],
  "bytecode": "0x60806040523480156200001157600080fd5b5060405162002fdd38038062002fdd83398181016040528101906200003791906200031e565b8181816002908051906020019062000051929190620000d1565b5080600390805190602001906200006a929190620000d1565b506200007b620000cc60201b60201c565b600081905550505033600860006101000a81548173ffffffffffffffffffffffffffffffffffffffff021916908373ffffffffffffffffffffffffffffffffffffffff160217905550505062000407565b600090565b828054620000df90620003d2565b90600052602060002090601f0160209004810192826200010357600085556200014f565b82601f106200011e57805160ff19168380011785556200014f565b828001600101855582156200014f579182015b828111156200014e57825182559160200191906001019062000131565b5b5090506200015e919062000162565b5090565b5b808211156200017d57600081600090555060010162000163565b5090565b6000604051905090565b600080fd5b600080fd5b600080fd5b600080fd5b6000601f19601f8301169050919050565b7f4e487b7100000000000000000000000000000000000000000000000000000000600052604160045260246000fd5b620001ea826200019f565b810181811067ffffffffffffffff821117156200020c576200020b620001b0565b5b80604052505050565b60006200022162000181565b90506200022f8282620001df565b919050565b600067ffffffffffffffff821115620002525762000251620001b0565b5b6200025d826200019f565b9050602081019050919050565b60005b838110156200028a5780820151818401526020810190506200026d565b838111156200029a576000848401525b50505050565b6000620002b7620002b18462000234565b62000215565b905082815260208101848484011115620002d657620002d56200019a565b5b620002e38482856200026a565b509392505050565b600082601f83011262000303576200030262000195565b5b815162000315848260208601620002a0565b91505092915050565b600080604083850312156200033857620003376200018b565b5b600083015167ffffffffffffffff81111562000359576200035862000190565b5b6200036785828601620002eb565b925050602083015167ffffffffffffffff8111156200038b576200038a62000190565b5b6200039985828601620002eb565b9150509250929050565b7f4e487b7100000000000000000000000000000000000000000000000000000000600052602260045260246000fd5b60006002820490506001821680620003eb57607f821691505b602082108103620004015762000400620003a3565b5b50919050565b612bc680620004176000396000f3fe6080604052600436106101185760003560e01c806370a08231116100a0578063d645ddf611610064578063d645ddf614610405578063e0ff5b8b14610421578063e985e9c51461045e578063f24ce89e1461049b578063f3fef3a3146104b757610158565b806370a082311461030e57806395d89b411461034b578063a22cb46514610376578063b88d4fde1461039f578063c87b56dd146103c857610158565b806318160ddd116100e757806318160ddd1461022b57806323b872dd1461025657806342842e0e1461027f57806342966c68146102a85780636352211e146102d157610158565b806301ffc9a71461015d57806306fdde031461019a578063081812fc146101c5578063095ea7b31461020257610158565b36610158576040517f08c379a000000000000000000000000000000000000000000000000000000000815260040161014f90611b50565b60405180910390fd5b600080fd5b34801561016957600080fd5b50610184600480360381019061017f9190611bdc565b6104e0565b6040516101919190611c24565b60405180910390f35b3480156101a657600080fd5b506101af610572565b6040516101bc9190611cc7565b60405180910390f35b3480156101d157600080fd5b506101ec60048036038101906101e79190611d1f565b610604565b6040516101f99190611d8d565b60405180910390f35b34801561020e57600080fd5b5061022960048036038101906102249190611dd4565b61060b565b005b34801561023757600080fd5b50610240610646565b60405161024d9190611e23565b60405180910390f35b34801561026257600080fd5b5061027d60048036038101906102789190611e3e565b61065d565b005b34801561028b57600080fd5b506102a660048036038101906102a19190611e3e565b610698565b005b3480156102b457600080fd5b506102cf60048036038101906102ca9190611d1f565b6106d3565b005b3480156102dd57600080fd5b506102f860048036038101906102f39190611d1f565b6107f3565b6040516103059190611d8d565b60405180910390f35b34801561031a57600080fd5b5061033560048036038101906103309190611e91565b610805565b6040516103429190611e23565b60405180910390f35b34801561035757600080fd5b506103606108bd565b60405161036d9190611cc7565b60405180910390f35b34801561038257600080fd5b5061039d60048036038101906103989190611eea565b61094f565b005b3480156103ab57600080fd5b506103c660048036038101906103c1919061205f565b61098a565b005b3480156103d457600080fd5b506103ef60048036038101906103ea9190611d1f565b6109c5565b6040516103fc9190611cc7565b60405180910390f35b61041f600480360381019061041a9190612183565b610a63565b005b34801561042d57600080fd5b5061044860048036038101906104439190611d1f565b610b4b565b60405161045591906122d2565b60405180910390f35b34801561046a57600080fd5b50610485600480360381019061048091906122f4565b610d76565b6040516104929190611c24565b60405180910390f35b6104b560048036038101906104b0919061241a565b610d7e565b005b3480156104c357600080fd5b506104de60048036038101906104d99190611dd4565b610fd4565b005b60006301ffc9a760e01b827bffffffffffffffffffffffffffffffffffffffffffffffffffffffff1916148061053b57506380ac58cd60e01b827bffffffffffffffffffffffffffffffffffffffffffffffffffffffff1916145b8061056b5750635b5e139f60e01b827bffffffffffffffffffffffffffffffffffffffffffffffffffffffff1916145b9050919050565b60606002805461058190612504565b80601f01602080910402602001604051908101604052809291908181526020018280546105ad90612504565b80156105fa5780601f106105cf576101008083540402835291602001916105fa565b820191906000526020600020905b8154815290600101906020018083116105dd57829003601f168201915b5050505050905090565b6000919050565b6040517f08c379a000000000000000000000000000000000000000000000000000000000815260040161063d90612581565b60405180910390fd5b60006106506110f2565b6001546000540303905090565b6040517f08c379a000000000000000000000000000000000000000000000000000000000815260040161068f90612581565b60405180910390fd5b6040517f08c379a00000000000000000000000000000000000000000000000000000000081526004016106ca90612581565b60405180910390fd5b3373ffffffffffffffffffffffffffffffffffffffff166106f3826107f3565b73ffffffffffffffffffffffffffffffffffffffff16148061076257503373ffffffffffffffffffffffffffffffffffffffff16600860009054906101000a900473ffffffffffffffffffffffffffffffffffffffff1673ffffffffffffffffffffffffffffffffffffffff16145b6107a1576040517f08c379a0000000000000000000000000000000000000000000000000000000008152600401610798906125ed565b60405180910390fd5b6107aa816110f7565b60096000828152602001908152602001600020600080820160006107ce91906119c9565b6001820160006107de91906119c9565b6002820160006107ee91906119c9565b505050565b60006107fe82611105565b9050919050565b60008073ffffffffffffffffffffffffffffffffffffffff168273ffffffffffffffffffffffffffffffffffffffff160361086c576040517f8f4eb60400000000000000000000000000000000000000000000000000000000815260040160405180910390fd5b67ffffffffffffffff600560008473ffffffffffffffffffffffffffffffffffffffff1673ffffffffffffffffffffffffffffffffffffffff16815260200190815260200160002054169050919050565b6060600380546108cc90612504565b80601f01602080910402602001604051908101604052809291908181526020018280546108f890612504565b80156109455780601f1061091a57610100808354040283529160200191610945565b820191906000526020600020905b81548152906001019060200180831161092857829003601f168201915b5050505050905090565b6040517f08c379a000000000000000000000000000000000000000000000000000000000815260040161098190612581565b60405180910390fd5b6040517f08c379a00000000000000000000000000000000000000000000000000000000081526004016109bc90612581565b60405180910390fd5b60606109d0826111d1565b610a06576040517fa14c4b5000000000000000000000000000000000000000000000000000000000815260040160405180910390fd5b6000610a10611230565b90506000815103610a305760405180602001604052806000815250610a5b565b80610a3a84611247565b604051602001610a4b929190612649565b6040516020818303038152906040525b915050919050565b66038d7ea4c680003414610aac576040517f08c379a0000000000000000000000000000000000000000000000000000000008152600401610aa3906126b9565b60405180910390fd5b60405180606001604052808481526020018381526020018281525060096000610ad36112a1565b81526020019081526020016000206000820151816000019080519060200190610afd929190611a09565b506020820151816001019080519060200190610b1a929190611a09565b506040820151816002019080519060200190610b37929190611a09565b50905050610b463360016112aa565b505050565b610b53611a8f565b610b5c826111d1565b610b9b576040517f08c379a0000000000000000000000000000000000000000000000000000000008152600401610b9290612725565b60405180910390fd5b60096000838152602001908152602001600020604051806060016040529081600082018054610bc990612504565b80601f0160208091040260200160405190810160405280929190818152602001828054610bf590612504565b8015610c425780601f10610c1757610100808354040283529160200191610c42565b820191906000526020600020905b815481529060010190602001808311610c2557829003601f168201915b50505050508152602001600182018054610c5b90612504565b80601f0160208091040260200160405190810160405280929190818152602001828054610c8790612504565b8015610cd45780601f10610ca957610100808354040283529160200191610cd4565b820191906000526020600020905b815481529060010190602001808311610cb757829003601f168201915b50505050508152602001600282018054610ced90612504565b80601f0160208091040260200160405190810160405280929190818152602001828054610d1990612504565b8015610d665780601f10610d3b57610100808354040283529160200191610d66565b820191906000526020600020905b815481529060010190602001808311610d4957829003601f168201915b5050505050815250509050919050565b600092915050565b60018111610dc1576040517f08c379a0000000000000000000000000000000000000000000000000000000008152600401610db8906127b7565b60405180910390fd5b6064811115610e05576040517f08c379a0000000000000000000000000000000000000000000000000000000008152600401610dfc90612823565b60405180910390fd5b808451148015610e155750808351145b8015610e215750808251145b610e60576040517f08c379a0000000000000000000000000000000000000000000000000000000008152600401610e579061288f565b60405180910390fd5b806601c6bf52634000610e7391906128de565b3414610eb4576040517f08c379a0000000000000000000000000000000000000000000000000000000008152600401610eab906129aa565b60405180910390fd5b6000610ebe6112a1565b9050610eca33836112aa565b60005b82811015610fcc576040518060600160405280878381518110610ef357610ef26129ca565b5b60200260200101518152602001868381518110610f1357610f126129ca565b5b60200260200101518152602001858381518110610f3357610f326129ca565b5b6020026020010151815250600960008481526020019081526020016000206000820151816000019080519060200190610f6d929190611a09565b506020820151816001019080519060200190610f8a929190611a09565b506040820151816002019080519060200190610fa7929190611a09565b509050508180610fb6906129f9565b9250508080610fc4906129f9565b915050610ecd565b505050505050565b600860009054906101000a900473ffffffffffffffffffffffffffffffffffffffff1673ffffffffffffffffffffffffffffffffffffffff163373ffffffffffffffffffffffffffffffffffffffff1614611064576040517f08c379a000000000000000000000000000000000000000000000000000000000815260040161105b906125ed565b60405180910390fd5b478111156110a7576040517f08c379a000000000000000000000000000000000000000000000000000000000815260040161109e90612a8d565b60405180910390fd5b8173ffffffffffffffffffffffffffffffffffffffff166108fc829081150290604051600060405180830381858888f193505050501580156110ed573d6000803e3d6000fd5b505050565b600090565b6111028160006112c8565b50565b600080829050806111146110f2565b1161119a576000548110156111995760006004600083815260200190815260200160002054905060007c0100000000000000000000000000000000000000000000000000000000821603611197575b6000810361118d576004600083600190039350838152602001908152602001600020549050611163565b80925050506111cc565b505b5b6040517fdf2d9b4200000000000000000000000000000000000000000000000000000000815260040160405180910390fd5b919050565b6000816111dc6110f2565b111580156111eb575060005482105b8015611229575060007c0100000000000000000000000000000000000000000000000000000000600460008581526020019081526020016000205416145b9050919050565b606060405180602001604052806000815250905090565b60606080604051019050806040528082600183039250600a81066030018353600a810490505b801561128d57600183039250600a81066030018353600a8104905061126d565b508181036020830392508083525050919050565b60008054905090565b6112c482826040518060200160405280600081525061159e565b5050565b60006112d383611105565b9050600081905082156113b05760008173ffffffffffffffffffffffffffffffffffffffff16611301611851565b73ffffffffffffffffffffffffffffffffffffffff161480611330575061132f8261132a611851565b610d76565b5b80611375575061133e611851565b73ffffffffffffffffffffffffffffffffffffffff1661135d86610604565b73ffffffffffffffffffffffffffffffffffffffff16145b9050806113ae576040517f59c896be00000000000000000000000000000000000000000000000000000000815260040160405180910390fd5b505b6113be816000866001611859565b6006600085815260200190815260200160002060006101000a81549073ffffffffffffffffffffffffffffffffffffffff0219169055600160806001901b03600560008373ffffffffffffffffffffffffffffffffffffffff1673ffffffffffffffffffffffffffffffffffffffff168152602001908152602001600020600082825401925050819055507c02000000000000000000000000000000000000000000000000000000007c010000000000000000000000000000000000000000000000000000000060a042901b6114938461185f565b171717600460008681526020019081526020016000208190555060007c020000000000000000000000000000000000000000000000000000000083160361151c576000600185019050600060046000838152602001908152602001600020540361151a576000548114611519578260046000838152602001908152602001600020819055505b5b505b83600073ffffffffffffffffffffffffffffffffffffffff168273ffffffffffffffffffffffffffffffffffffffff167fddf252ad1be2c89b69c2b068fc378daa952ba7f163c4a11628f55a4df523b3ef60405160405180910390a4611586816000866001611869565b60016000815480929190600101919050555050505050565b600080549050600073ffffffffffffffffffffffffffffffffffffffff168473ffffffffffffffffffffffffffffffffffffffff160361160a576040517f2e07630000000000000000000000000000000000000000000000000000000000815260040160405180910390fd5b60008303611644576040517fb562e8dd00000000000000000000000000000000000000000000000000000000815260040160405180910390fd5b6116516000858386611859565b600160406001901b178302600560008673ffffffffffffffffffffffffffffffffffffffff1673ffffffffffffffffffffffffffffffffffffffff1681526020019081526020016000206000828254019250508190555060e16116b66001851461186f565b901b60a042901b6116c68661185f565b1717600460008381526020019081526020016000208190555060008190506000848201905060008673ffffffffffffffffffffffffffffffffffffffff163b146117ca575b818673ffffffffffffffffffffffffffffffffffffffff16600073ffffffffffffffffffffffffffffffffffffffff167fddf252ad1be2c89b69c2b068fc378daa952ba7f163c4a11628f55a4df523b3ef60405160405180910390a461177a6000878480600101955087611879565b6117b0576040517fd1a57ed600000000000000000000000000000000000000000000000000000000815260040160405180910390fd5b80821061170b5782600054146117c557600080fd5b611835565b5b818060010192508673ffffffffffffffffffffffffffffffffffffffff16600073ffffffffffffffffffffffffffffffffffffffff167fddf252ad1be2c89b69c2b068fc378daa952ba7f163c4a11628f55a4df523b3ef60405160405180910390a48082106117cb575b81600081905550505061184b6000858386611869565b50505050565b600033905090565b50505050565b6000819050919050565b50505050565b6000819050919050565b60008373ffffffffffffffffffffffffffffffffffffffff1663150b7a0261189f611851565b8786866040518563ffffffff1660e01b81526004016118c19493929190612b02565b6020604051808303816000875af19250505080156118fd57506040513d601f19601f820116820180604052508101906118fa9190612b63565b60015b611976573d806000811461192d576040519150601f19603f3d011682016040523d82523d6000602084013e611932565b606091505b50600081510361196e576040517fd1a57ed600000000000000000000000000000000000000000000000000000000815260040160405180910390fd5b805181602001fd5b63150b7a0260e01b7bffffffffffffffffffffffffffffffffffffffffffffffffffffffff1916817bffffffffffffffffffffffffffffffffffffffffffffffffffffffff191614915050949350505050565b5080546119d590612504565b6000825580601f106119e75750611a06565b601f016020900490600052602060002090810190611a059190611ab0565b5b50565b828054611a1590612504565b90600052602060002090601f016020900481019282611a375760008555611a7e565b82601f10611a5057805160ff1916838001178555611a7e565b82800160010185558215611a7e579182015b82811115611a7d578251825591602001919060010190611a62565b5b509050611a8b9190611ab0565b5090565b60405180606001604052806060815260200160608152602001606081525090565b5b80821115611ac9576000816000905550600101611ab1565b5090565b600082825260208201905092915050565b7f46616c6c6261636b2066756e6374696f6e2c2074616b6520796f7572206d6f6e60008201527f6579206261636b00000000000000000000000000000000000000000000000000602082015250565b6000611b3a602783611acd565b9150611b4582611ade565b604082019050919050565b60006020820190508181036000830152611b6981611b2d565b9050919050565b6000604051905090565b600080fd5b600080fd5b60007fffffffff0000000000000000000000000000000000000000000000000000000082169050919050565b611bb981611b84565b8114611bc457600080fd5b50565b600081359050611bd681611bb0565b92915050565b600060208284031215611bf257611bf1611b7a565b5b6000611c0084828501611bc7565b91505092915050565b60008115159050919050565b611c1e81611c09565b82525050565b6000602082019050611c396000830184611c15565b92915050565b600081519050919050565b60005b83811015611c68578082015181840152602081019050611c4d565b83811115611c77576000848401525b50505050565b6000601f19601f8301169050919050565b6000611c9982611c3f565b611ca38185611acd565b9350611cb3818560208601611c4a565b611cbc81611c7d565b840191505092915050565b60006020820190508181036000830152611ce18184611c8e565b905092915050565b6000819050919050565b611cfc81611ce9565b8114611d0757600080fd5b50565b600081359050611d1981611cf3565b92915050565b600060208284031215611d3557611d34611b7a565b5b6000611d4384828501611d0a565b91505092915050565b600073ffffffffffffffffffffffffffffffffffffffff82169050919050565b6000611d7782611d4c565b9050919050565b611d8781611d6c565b82525050565b6000602082019050611da26000830184611d7e565b92915050565b611db181611d6c565b8114611dbc57600080fd5b50565b600081359050611dce81611da8565b92915050565b60008060408385031215611deb57611dea611b7a565b5b6000611df985828601611dbf565b9250506020611e0a85828601611d0a565b9150509250929050565b611e1d81611ce9565b82525050565b6000602082019050611e386000830184611e14565b92915050565b600080600060608486031215611e5757611e56611b7a565b5b6000611e6586828701611dbf565b9350506020611e7686828701611dbf565b9250506040611e8786828701611d0a565b9150509250925092565b600060208284031215611ea757611ea6611b7a565b5b6000611eb584828501611dbf565b91505092915050565b611ec781611c09565b8114611ed257600080fd5b50565b600081359050611ee481611ebe565b92915050565b60008060408385031215611f0157611f00611b7a565b5b6000611f0f85828601611dbf565b9250506020611f2085828601611ed5565b9150509250929050565b600080fd5b600080fd5b7f4e487b7100000000000000000000000000000000000000000000000000000000600052604160045260246000fd5b611f6c82611c7d565b810181811067ffffffffffffffff82111715611f8b57611f8a611f34565b5b80604052505050565b6000611f9e611b70565b9050611faa8282611f63565b919050565b600067ffffffffffffffff821115611fca57611fc9611f34565b5b611fd382611c7d565b9050602081019050919050565b82818337600083830152505050565b6000612002611ffd84611faf565b611f94565b90508281526020810184848401111561201e5761201d611f2f565b5b612029848285611fe0565b509392505050565b600082601f83011261204657612045611f2a565b5b8135612056848260208601611fef565b91505092915050565b6000806000806080858703121561207957612078611b7a565b5b600061208787828801611dbf565b945050602061209887828801611dbf565b93505060406120a987828801611d0a565b925050606085013567ffffffffffffffff8111156120ca576120c9611b7f565b5b6120d687828801612031565b91505092959194509250565b600067ffffffffffffffff8211156120fd576120fc611f34565b5b61210682611c7d565b9050602081019050919050565b6000612126612121846120e2565b611f94565b90508281526020810184848401111561214257612141611f2f565b5b61214d848285611fe0565b509392505050565b600082601f83011261216a57612169611f2a565b5b813561217a848260208601612113565b91505092915050565b60008060006060848603121561219c5761219b611b7a565b5b600084013567ffffffffffffffff8111156121ba576121b9611b7f565b5b6121c686828701612155565b935050602084013567ffffffffffffffff8111156121e7576121e6611b7f565b5b6121f386828701612155565b925050604084013567ffffffffffffffff81111561221457612213611b7f565b5b61222086828701612155565b9150509250925092565b600082825260208201905092915050565b600061224682611c3f565b612250818561222a565b9350612260818560208601611c4a565b61226981611c7d565b840191505092915050565b60006060830160008301518482036000860152612291828261223b565b915050602083015184820360208601526122ab828261223b565b915050604083015184820360408601526122c5828261223b565b9150508091505092915050565b600060208201905081810360008301526122ec8184612274565b905092915050565b6000806040838503121561230b5761230a611b7a565b5b600061231985828601611dbf565b925050602061232a85828601611dbf565b9150509250929050565b600067ffffffffffffffff82111561234f5761234e611f34565b5b602082029050602081019050919050565b600080fd5b600061237861237384612334565b611f94565b9050808382526020820190506020840283018581111561239b5761239a612360565b5b835b818110156123e257803567ffffffffffffffff8111156123c0576123bf611f2a565b5b8086016123cd8982612155565b8552602085019450505060208101905061239d565b5050509392505050565b600082601f83011261240157612400611f2a565b5b8135612411848260208601612365565b91505092915050565b6000806000806080858703121561243457612433611b7a565b5b600085013567ffffffffffffffff81111561245257612451611b7f565b5b61245e878288016123ec565b945050602085013567ffffffffffffffff81111561247f5761247e611b7f565b5b61248b878288016123ec565b935050604085013567ffffffffffffffff8111156124ac576124ab611b7f565b5b6124b8878288016123ec565b92505060606124c987828801611d0a565b91505092959194509250565b7f4e487b7100000000000000000000000000000000000000000000000000000000600052602260045260246000fd5b6000600282049050600182168061251c57607f821691505b60208210810361252f5761252e6124d5565b5b50919050565b7f534f554c424f554e440000000000000000000000000000000000000000000000600082015250565b600061256b600983611acd565b915061257682612535565b602082019050919050565b6000602082019050818103600083015261259a8161255e565b9050919050565b7f4e6f7420617574686f72697a6564000000000000000000000000000000000000600082015250565b60006125d7600e83611acd565b91506125e2826125a1565b602082019050919050565b60006020820190508181036000830152612606816125ca565b9050919050565b600081905092915050565b600061262382611c3f565b61262d818561260d565b935061263d818560208601611c4a565b80840191505092915050565b60006126558285612618565b91506126618284612618565b91508190509392505050565b7f426f6f6b206d696e7420636f737420697320302e303031206574682e00000000600082015250565b60006126a3601c83611acd565b91506126ae8261266d565b602082019050919050565b600060208201905081810360008301526126d281612696565b9050919050565b7f426f6f6b20646f6573206e6f7420657869737400000000000000000000000000600082015250565b600061270f601383611acd565b915061271a826126d9565b602082019050919050565b6000602082019050818103600083015261273e81612702565b9050919050565b7f596f752063616e206e6f74206261746368206d696e7420612073696e676c652060008201527f626f6f6b00000000000000000000000000000000000000000000000000000000602082015250565b60006127a1602483611acd565b91506127ac82612745565b604082019050919050565b600060208201905081810360008301526127d081612794565b9050919050565b7f4d6178696d756d206261746368206d696e7420636f756e742069732031303000600082015250565b600061280d601f83611acd565b9150612818826127d7565b602082019050919050565b6000602082019050818103600083015261283c81612800565b9050919050565b7f496e636f6e73697374656e742064617461000000000000000000000000000000600082015250565b6000612879601183611acd565b915061288482612843565b602082019050919050565b600060208201905081810360008301526128a88161286c565b9050919050565b7f4e487b7100000000000000000000000000000000000000000000000000000000600052601160045260246000fd5b60006128e982611ce9565b91506128f483611ce9565b9250817fffffffffffffffffffffffffffffffffffffffffffffffffffffffffffffffff048311821515161561292d5761292c6128af565b5b828202905092915050565b7f4261746368206d696e7420636f737420697320302e3030303520657468202a2060008201527f62617463684d696e7453697a6500000000000000000000000000000000000000602082015250565b6000612994602d83611acd565b915061299f82612938565b604082019050919050565b600060208201905081810360008301526129c381612987565b9050919050565b7f4e487b7100000000000000000000000000000000000000000000000000000000600052603260045260246000fd5b6000612a0482611ce9565b91507fffffffffffffffffffffffffffffffffffffffffffffffffffffffffffffffff8203612a3657612a356128af565b5b600182019050919050565b7f4e6f7420656e6f7567682062616c616e63650000000000000000000000000000600082015250565b6000612a77601283611acd565b9150612a8282612a41565b602082019050919050565b60006020820190508181036000830152612aa681612a6a565b9050919050565b600081519050919050565b600082825260208201905092915050565b6000612ad482612aad565b612ade8185612ab8565b9350612aee818560208601611c4a565b612af781611c7d565b840191505092915050565b6000608082019050612b176000830187611d7e565b612b246020830186611d7e565b612b316040830185611e14565b8181036060830152612b438184612ac9565b905095945050505050565b600081519050612b5d81611bb0565b92915050565b600060208284031215612b7957612b78611b7a565b5b6000612b8784828501612b4e565b9150509291505056fea264697066735822122094860a9c2c0d1217ac7cd7d114544e2736b5c53874a68cddb29769de9f8c485164736f6c634300080e0033",
  "immutableReferences": {},
  "source": "// SPDX-License-Identifier: MIT\npragma solidity ^0.8.9;\n\nimport \"erc721a/contracts/ERC721A.sol\";\n\ncontract soulboundLibrary is ERC721A{\n    address _owner;\n    mapping (uint => Book) books;\n\n    struct Book{\n        string author;\n        string name;\n        string isbn;\n\n    }\n\n    constructor(string memory name_, string memory symbol_) ERC721A(name_,symbol_) {\n        _owner = msg.sender;\n    }\n\n    receive() external payable {\n        revert(\"Fallback function, take your money back\");\n    }\n\n    function getBook(uint id) public view returns(Book memory){\n        require(_exists(id),\"Book does not exist\");\n        return books[id];\n    }\n    //[\"a\",\"b\"]\n    function mint(string memory author_,string memory name_, string memory isbn_) public payable {\n        require(msg.value == 1000000000000000, \"Book mint cost is 0.001 eth.\");\n        //require(isbn_.length == 10, \"ISBN length not valid.\");\n\n        books[_nextTokenId()] = Book(author_,name_,isbn_);\n        _safeMint(msg.sender,1);\n    }\n\n    function batchMint(string[] memory authors_, string[] memory names_, string[] memory isbns_, uint batchMintSize) public payable{\n        require(batchMintSize > 1, \"You can not batch mint a single book\");\n        require(batchMintSize <= 100, \"Maximum batch mint count is 100\");\n        require(authors_.length == batchMintSize && names_.length == batchMintSize && isbns_.length == batchMintSize, \"Inconsistent data\");\n        require(msg.value == (500000000000000 * batchMintSize), \"Batch mint cost is 0.0005 eth * batchMintSize\");\n\n        uint tokenID = _nextTokenId();\n        _safeMint(msg.sender,batchMintSize);\n\n        for(uint i = 0; i < batchMintSize; i++){\n            books[tokenID] = Book(authors_[i],names_[i],isbns_[i]);\n            tokenID++;\n        }\n    }\n\n    function burn(uint tokenID_) public {\n        require(ownerOf(tokenID_) == msg.sender || _owner == msg.sender,\"Not authorized\");\n        _burn(tokenID_);\n        delete books[tokenID_];\n    }\n\n    function withdraw(address _to, uint amount) public {\n        require(msg.sender == _owner,\"Not authorized\");\n        require(amount <= address(this).balance,\"Not enough balance\");\n        payable(_to).transfer(amount);\n    }\n}",
  "sourcePath": "/Users/ahmetomer/soulboundLibrary/contracts/soulboundLibrary.sol",
  "compiler": {
    "name": "solc",
    "version": "0.8.14+commit.80d49f37.Emscripten.clang"
  },
  "schemaVersion": "3.4.7",
  "updatedAt": "2022-05-30T10:35:32.117Z",
  "devdoc": {
    "kind": "dev",
    "methods": {
      "approve(address,uint256)": {
        "details": "See {IERC721-approve}."
      },
      "balanceOf(address)": {
        "details": "See {IERC721-balanceOf}."
      },
      "getApproved(uint256)": {
        "details": "See {IERC721-getApproved}."
      },
      "isApprovedForAll(address,address)": {
        "details": "See {IERC721-isApprovedForAll}."
      },
      "name()": {
        "details": "See {IERC721Metadata-name}."
      },
      "ownerOf(uint256)": {
        "details": "See {IERC721-ownerOf}."
      },
      "safeTransferFrom(address,address,uint256)": {
        "details": "See {IERC721-safeTransferFrom}."
      },
      "safeTransferFrom(address,address,uint256,bytes)": {
        "details": "See {IERC721-safeTransferFrom}."
      },
      "setApprovalForAll(address,bool)": {
        "details": "See {IERC721-setApprovalForAll}."
      },
      "supportsInterface(bytes4)": {
        "details": "See {IERC165-supportsInterface}."
      },
      "symbol()": {
        "details": "See {IERC721Metadata-symbol}."
      },
      "tokenURI(uint256)": {
        "details": "See {IERC721Metadata-tokenURI}."
      },
      "totalSupply()": {
        "details": "Returns the total number of tokens in existence. Burned tokens will reduce the count.  To get the total number of tokens minted, please see `_totalMinted`."
      },
      "transferFrom(address,address,uint256)": {
        "details": "See {IERC721-transferFrom}."
      }
    },
    "version": 1
  },
  "userdoc": {
    "errors": {
      "ApprovalCallerNotOwnerNorApproved()": [
        {
          "notice": "The caller must own the token or be an approved operator."
        }
      ],
      "ApprovalQueryForNonexistentToken()": [
        {
          "notice": "The token does not exist."
        }
      ],
      "ApprovalToCurrentOwner()": [
        {
          "notice": "The caller cannot approve to the current owner."
        }
      ],
      "ApproveToCaller()": [
        {
          "notice": "The caller cannot approve to their own address."
        }
      ],
      "BalanceQueryForZeroAddress()": [
        {
          "notice": "Cannot query the balance for the zero address."
        }
      ],
      "MintToZeroAddress()": [
        {
          "notice": "Cannot mint to the zero address."
        }
      ],
      "MintZeroQuantity()": [
        {
          "notice": "The quantity of tokens minted must be more than zero."
        }
      ],
      "OwnerQueryForNonexistentToken()": [
        {
          "notice": "The token does not exist."
        }
      ],
      "TransferCallerNotOwnerNorApproved()": [
        {
          "notice": "The caller must own the token or be an approved operator."
        }
      ],
      "TransferFromIncorrectOwner()": [
        {
          "notice": "The token must be owned by `from`."
        }
      ],
      "TransferToNonERC721ReceiverImplementer()": [
        {
          "notice": "Cannot safely transfer to a contract that does not implement the ERC721Receiver interface."
        }
      ],
      "TransferToZeroAddress()": [
        {
          "notice": "Cannot transfer to the zero address."
        }
      ],
      "URIQueryForNonexistentToken()": [
        {
          "notice": "The token does not exist."
        }
      ]
    },
    "kind": "user",
    "methods": {},
    "version": 1
  }
}